:020000040800F2
:1000000080F101206D1A0108E38C0108591A0108DA
:10001000591A0108591A0108591A0108000000006C
:100020000000000000000000000000003D1B01086F
:10003000591A010800000000DD1A0108492B0108C7
:10004000C51C0108C51C0108C51C0108C51C010808
:10005000C51C0108C51C0108C51C0108C51C0108F8
:10006000C51C0108C51C0108C51C0108C51C0108E8
:10007000C51C0108C51C0108C51C0108C51C0108D8
:10008000C51C0108C51C0108C51C0108C51C0108C8
:10009000C51C0108C51C0108C51C0108C51C0108B8
:1000A000C51C0108C51C0108C51C0108C51C0108A8
:1000B000C51C0108C51C0108C51C0108C51C010898
:1000C000C51C0108C51C0108C51C0108C51C010888
:1000D000C51C0108C51C0108C51C0108C51C010878
:1000E000C51C0108C51C0108C51C0108C51C010868
:1000F000C51C0108C51C0108C51C0108C51C010858
:10010000C51C0108C51C0108C51C0108C51C010847
:10011000C51C0108C51C0108C51C0108C51C010837
:10012000C51C0108C51C0108C51C0108C51C010827
:10013000C51C0108C51C0108C51C0108C51C010817
:10014000C51C0108C51C0108C51C0108C51C010807
:10015000C51C0108C51C0108C51C0108C51C0108F7
:10016000C51C0108C51C0108C51C0108C51C0108E7
:10017000C51C0108C51C0108C51C0108C51C0108D7
:10018000C51C0108C51C0108C51C0108C51C0108C7
:10019000C51C0108C51C0108C51C0108C51C0108B7
:1001A000C51C0108C51C0108C51C0108C51C0108A7
:1001B000C51C0108C51C0108C51C0108C51C010897
:0401C000C51C010851
:1001D00001F0FF01102A2BDB10F0070F08D010F8F8
:1001E000013B013A8B422DD010F0070F42B3F6D1FC
:1001F000F0B441EA012141EA014122F007047FF015
:1002000000070023F0E80256083C85EA010586EA6B
:10021000010685FA47F5A3FA87F586FA47F6A5FAA7
:1002200087F68EB9EED1F0BC01F0FF0102F00702B3
:1002300032B110F8013B013A83EA010313B1F8D15E
:100240000020704701387047002D06BF354603383F
:10025000073815F0010F07D1013015F4807F02BF78
:10026000013015F4C03F0130F0BC0138704700BFC9
:10027000F0B400B581B084460C1C151C012D25DBA3
:10028000002620680434012D1ED021680434022D7C
:100290001AD022680434032D16D023680434042DA8
:1002A00012D0043DAE000727F619BE4304366F4650
:1002B000BF1BBD469646002D05D0226804343A6027
:1002C0000437013DF7E77246E047B54401B008BC8A
:1002D000F0BC9E46704700BF002902D0B0FBF1F091
:1002E000704708B14FF0FF3000F03AB80029F8D05D
:1002F0000246B0FBF1F000FB11217047002902D04B
:1003000090FBF1F070470028C8BF6FF00040B8BF05
:100310004FF0004000F024B80029F4D0024690FBD2
:10032000F1F000FB11217047002904D0B0FBF1F27D
:1003300001FB1200704708B14FF0FF3000F010B819
:10034000002904D090FBF1F201FB12007047002855
:10035000C8BF6FF00040B8BF4FF0004000F000B8D9
:10036000704700BFD0400B00D1409C46203AD3409C
:10037000184352426346934018437047914003002C
:1003800090409C46203A9340194352426346D340E2
:100390001943704781F0004102E000BF83F0004341
:1003A00030B54FEA41044FEA430594EA050F08BF10
:1003B00090EA020F1FBF54EA000C55EA020C7FEAD4
:1003C000645C7FEA655C00F0E2804FEA5454D4EB51
:1003D0005555B8BF6D420CDD2C4480EA020281EA1B
:1003E000030382EA000083EA010180EA020281EA53
:1003F0000303362D88BF30BD11F0004F4FEA0131A5
:100400004FF4801C4CEA113102D0404261EB4101B3
:1004100013F0004F4FEA03334CEA133302D0524239
:1004200063EB430394EA050F00F0A780A4F10104F5
:10043000D5F1200E0DDB02FA0EFC22FA05F280182F
:1004400041F1000103FA0EF2801843FA05F3594115
:100450000EE0A5F120050EF1200E012A03FA0EFC94
:1004600028BF4CF0020C43FA05F3C01851EBE371BE
:1004700001F0004507D54FF0000EDCF1000C7EEBDB
:1004800000006EEB0101B1F5801F1BD3B1F5001F19
:100490000CD349085FEA30004FEA3C0C04F1010438
:1004A0004FEA445212F5800F80F09A80BCF1004F61
:1004B00008BF5FEA500C50F1000041EB045141EAE3
:1004C000050130BD5FEA4C0C404141EB0101013CAC
:1004D00028BFB1F5801FE9D291F0000F04BF01469B
:1004E0000020B1FA81F308BF2033A3F10B03B3F16D
:1004F00020020CDA0C3208DD02F1140CC2F10C02FD
:1005000001FA0CF021FA02F10CE002F11402D8BF5A
:10051000C2F1200C01FA02F120FA0CFCDCBF41EA26
:100520000C019040E41AA2BF01EB0451294330BDF5
:100530006FEA04041F3C1CDA0C340EDC04F11404D2
:10054000C4F1200220FA04F001FA02F340EA0300A9
:1005500021FA04F345EA030130BDC4F10C04C4F1EF
:10056000200220FA02F001FA04F340EA03002946CF
:1005700030BD21FA04F0294630BD94F0000F83F419
:10058000801306BF81F480110134013D4EE77FEAFC
:10059000645C18BF7FEA655C29D094EA050F08BF48
:1005A00090EA020F05D054EA000C04BF1946104629
:1005B00030BD91EA030F1EBF0021002030BD5FEA6D
:1005C000545C05D14000494128BF41F0004130BD95
:1005D00014F580043CBF01F5801130BD01F00045E9
:1005E00045F0FE4141F470014FF0000030BD7FEA5C
:1005F000645C1ABF194610467FEA655C1CBF0B4657
:10060000024650EA013406BF52EA033591EA030F6D
:1006100041F4002130BD00BF90F0000F04BF002165
:10062000704730B54FF4806404F132044FF0000598
:100630004FF0000150E700BF90F0000F04BF002111
:10064000704730B54FF4806404F1320410F0004577
:1006500048BF40424FF000013EE700BF42004FEA72
:10066000E2014FEA31014FEA02701FBF12F07F43EF
:1006700093F07F4F81F06051704732F07F4208BFA6
:10068000704793F07F4F04BF41F40021704730B5AD
:100690004FF4607401F0004521F000411CE700BFF9
:1006A00050EA010208BF704730B54FF000050AE07C
:1006B00050EA010208BF704730B511F0004502D57D
:1006C000404261EB41014FF4806404F132045FEA7F
:1006D000915C3FF4D8AE4FF003025FEADC0C18BF28
:1006E00003325FEADC0C18BF033202EBDC02C2F11A
:1006F000200300FA03FC20FA02F001FA03FE40EAAC
:100700000E0021FA02F11444BDE600BF70B54FF0AF
:10071000FF0C4CF4E06C1CEA11541DBF1CEA13558D
:1007200094EA0C0F95EA0C0F00F0DEF82C4481EAF5
:10073000030621EA4C5123EA4C5350EA013518BF15
:1007400052EA033541F4801143F4801338D0A0FB02
:1007500002CE4FF00005E1FB02E506F00042E0FBAF
:1007600003E54FF00006E1FB03569CF0000F18BFB5
:100770004EF0010EA4F1FF04B6F5007F64F540745D
:1007800004D25FEA4E0E6D4146EB060642EAC621F0
:1007900041EA55514FEAC52040EA5E504FEACE2E5D
:1007A000B4F1FD0C88BFBCF5E06F1ED8BEF1004F60
:1007B00008BF5FEA500E50F1000041EB045170BDDC
:1007C00006F0004646EA010140EA020081EA030120
:1007D000B4EB5C04C2BFD4EB0C0541EA045170BD1C
:1007E00041F480114FF0000E013C00F3AB8014F196
:1007F000360FDEBF002001F0004170BDC4F10004DF
:10080000203C35DA0C341BDC04F11404C4F120055F
:1008100000FA05F320FA04F001FA05F240EA0200BA
:1008200001F0004221F0004110EBD37021FA04F6F0
:1008300042EB06015EEA430E08BF20EAD37070BDAA
:10084000C4F10C04C4F1200500FA04F320FA05F009
:1008500001FA04F240EA020001F0004110EBD3700B
:1008600041F100015EEA430E08BF20EAD37070BD7B
:10087000C4F1200500FA05F24EEA020E20FA04F354
:1008800001FA05F243EA020321FA04F001F0004103
:1008900021FA04F220EA020000EBD3705EEA430E74
:1008A00008BF20EAD37070BD94F0000F0FD101F0A3
:1008B0000046400041EB010111F4801F08BF013CDC
:1008C000F7D041EA060195F0000F18BF704703F01A
:1008D0000046520043EB030313F4801F08BF013DA1
:1008E000F7D043EA0603704794EA0C0F0CEA13555D
:1008F00018BF95EA0C0F0CD050EA410618BF52EA17
:100900004306D1D181EA030101F000414FF000001C
:1009100070BD50EA410606BF1046194652EA43062A
:1009200019D094EA0C0F02D150EA013613D195EA9E
:100930000C0F05D152EA03361CBF104619460AD1E6
:1009400081EA030101F0004141F0FE4141F47001F0
:100950004FF0000070BD41F0FE4141F4780170BDE0
:1009600070B54FF0FF0C4CF4E06C1CEA11541DBF45
:100970001CEA135594EA0C0F95EA0C0F00F0A7F847
:10098000A4EB050481EA030E52EA03354FEA013174
:1009900000F088804FEA03334FF0805545EA131387
:1009A00043EA12634FEA022245EA111545EA10654F
:1009B0004FEA00260EF000419D4208BF964244F1E6
:1009C000FD0404F5407402D25B084FEA3202B61A05
:1009D00065EB03055B084FEA32024FF480104FF4D9
:1009E000002CB6EB020E75EB030E22BFB61A75464D
:1009F00040EA0C005B084FEA3202B6EB020E75EBE0
:100A0000030E22BFB61A754640EA5C005B084FEA47
:100A10003202B6EB020E75EB030E22BFB61A754614
:100A200040EA9C005B084FEA3202B6EB020E75EB1F
:100A3000030E22BFB61A754640EADC0055EA060EE0
:100A400018D04FEA051545EA16754FEA06164FEA23
:100A5000C30343EA52734FEAC2025FEA1C1CC0D1CF
:100A600011F4801F0BD141EA00014FF000004FF05C
:100A7000004CB6E711F4801F04BF01430020B4F11D
:100A8000FD0C88BFBCF5E06F3FF6AFAEB5EB030CD5
:100A900004BFB6EB020C5FEA500C50F1000041EBD2
:100AA000045170BD0EF0004E4EEA113114EB5C049F
:100AB000C2BFD4EB0C0541EA045170BD41F4801172
:100AC0004FF0000E013C90E645EA060E8DE60CEA7A
:100AD000135594EA0C0F08BF95EA0C0F3FF43BAF97
:100AE00094EA0C0F0AD150EA01347FF434AF95EA4E
:100AF0000C0F7FF425AF104619462CE795EA0C0F32
:100B000006D152EA03353FF4FDAE1046194622E7FE
:100B100050EA410618BF52EA43067FF4C5AE50EAD8
:100B200041047FF40DAF52EA43057FF4EBAE12E7C8
:100B30004FF0FF3C06E000BF4FF0010C02E000BFA9
:100B40004FF0010C4DF804CD4FEA410C7FEA6C5C8C
:100B50004FEA430C18BF7FEA6C5C1BD001B050EA2F
:100B6000410C0CBF52EA430C91EA030F02BF90EA1A
:100B7000020F0020704710F1000F91EA030F58BFD9
:100B8000994208BF90422CBFD8176FEAE37040F03B
:100B9000010070474FEA410C7FEA6C5C02D150EAD9
:100BA000013C07D14FEA430C7FEA6C5CD6D152EA94
:100BB000033CD3D05DF8040B704700BF8446104659
:100BC00062468C461946634600E000BF01B5FFF758
:100BD000B7FF002848BF10F1000F01BD4DF808ED28
:100BE000FFF7F4FF0CBF012000205DF808FB00BFF9
:100BF0004DF808EDFFF7EAFF34BF012000205DF853
:100C000008FB00BF4DF808EDFFF7E0FF94BF01209F
:100C100000205DF808FB00BF4DF808EDFFF7CEFFA0
:100C200094BF012000205DF808FB00BF4DF808EDDF
:100C3000FFF7C4FF34BF012000205DF808FB00BFB0
:100C40004FEA410C7FEA6C5C02D150EA013C0AD1C8
:100C50004FEA430C7FEA6C5C02D152EA033C02D1BA
:100C60004FF0000070474FF0010070474FEA41021B
:100C700012F5001215D211D56FF47873B3EB6252EE
:100C800012D94FEAC12343F0004343EA505311F015
:100C9000004F23FA02F018BF404270474FF00000A7
:100CA000704750EA013005D111F0004008BF6FF0E5
:100CB000004070474FF00000704700BF4A0011D25B
:100CC00012F5001211D20DD56FF47873B3EB6252A6
:100CD0000ED44FEAC12343F0004343EA505323FAB2
:100CE00002F070474FF00000704750EA013002D127
:100CF0004FF0FF3070474FF0000070474FEA41025D
:100D0000B2F1E04324BFB3F5001CDCF1FE5C0DD969
:100D100001F0004C4FEAC0024CEA5070B2F1004FB3
:100D200040EB830008BF20F00100704711F0804FB6
:100D300021D113F13872BCBF01F00040704741F47B
:100D400080114FEA5252C2F11802C2F1200C10FA7F
:100D50000CF320FA02F018BF40F001004FEAC12363
:100D60004FEAD32303FA0CFC40EA0C0023FA02F307
:100D70004FEA4303CCE77FEA625307D150EA0133DD
:100D80001EBF4FF0FE4040F44000704701F00040AD
:100D900040F0FE4040F40000704700BF80F000408B
:100DA00002E000BF81F0004142001FBF5FEA410343
:100DB00092EA030F7FEA226C7FEA236C6AD04FEA43
:100DC0001262D2EB1363C1BFD21841404840414088
:100DD000B8BF5B42192B88BF704710F0004F40F43A
:100DE000000020F07F4018BF404211F0004F41F456
:100DF000000121F07F4118BF494292EA030F3FD022
:100E0000A2F1010241FA03FC10EB0C00C3F1200334
:100E100001FA03F100F0004302D5494260EB4000C3
:100E2000B0F5000F13D3B0F1807F06D340084FEA2E
:100E3000310102F10102FE2A51D2B1F1004F40EB23
:100E4000C25008BF20F0010040EA0300704749008B
:100E500040EB0000013A28BFB0F5000FEDD2B0FA28
:100E600080FCACF1080CB2EB0C0200FA0CF0AABF4B
:100E700000EBC25052421843BCBFD04018437047E9
:100E800092F0000F81F4000106BF80F400000132EF
:100E9000013BB5E74FEA41037FEA226C18BF7FEAC6
:100EA000236C21D092EA030F04D092F0000F08BF08
:100EB0000846704790EA010F1CBF0020704712F0EF
:100EC0007F4F04D1400028BF40F00040704712F12E
:100ED00000723CBF00F50000704700F0004343F093
:100EE000FE4040F4000070477FEA226216BF0846C9
:100EF0007FEA23630146420206BF5FEA412390EA8C
:100F0000010F40F4800070474FF0000304E000BF81
:100F100010F0004348BF40425FEA000C08BF704732
:100F200043F0964301464FF000001CE050EA0102F6
:100F300008BF70474FF000030AE000BF50EA01020B
:100F400008BF704711F0004302D5404261EB4101F8
:100F50005FEA010C02BF84460146002043F0B6431D
:100F600008BFA3F18053A3F50003BCFA8CF2083A42
:100F7000A3EBC25310DB01FA02FC634400FA02FC4B
:100F8000C2F12002BCF1004F20FA02F243EB020052
:100F900008BF20F00100704702F1200201FA02FCB4
:100FA000C2F1200250EA4C0021FA02F243EB0200A7
:100FB00008BF20EADC7070474FF0FF0C1CEAD052EB
:100FC0001EBF1CEAD15392EA0C0F93EA0C0F6FD0AC
:100FD0001A4480EA010C400218BF5FEA41211ED08A
:100FE0004FF0006343EA501043EA5111A0FB013176
:100FF0000CF00040B1F5000F3EBF490041EAD3714B
:101000005B0040EA010062F17F02FD2A1DD8B3F1C6
:10101000004F40EBC25008BF20F00100704790F035
:10102000000F0CF0004C08BF49024CEA502040EA87
:1010300051207F3AC2BFD2F1FF0340EAC25070474D
:1010400040F400004FF00003013A5DDC12F1190F8B
:10105000DCBF00F000407047C2F10002410021FAFD
:1010600002F1C2F1200200FA02FC5FEA310040F115
:10107000000053EA4C0308BF20EADC70704792F08E
:10108000000F00F0004C02BF400010F4000F013AC6
:10109000F9D040EA0C0093F0000F01F0004C02BFC1
:1010A000490011F4000F013BF9D041EA0C018FE730
:1010B0000CEAD15392EA0C0F18BF93EA0C0F0AD036
:1010C00030F0004C18BF31F0004CD8D180EA01005C
:1010D00000F00040704790F0000F17BF90F0004FF5
:1010E000084691F0000F91F0004F14D092EA0C0FD7
:1010F00001D142020FD193EA0C0F03D14B0218BF6A
:10110000084608D180EA010000F0004040F0FE40AF
:1011100040F40000704740F0FE4040F4400070474B
:101120004FF0FF0C1CEAD0521EBF1CEAD15392EACA
:101130000C0F93EA0C0F69D0A2EB030280EA010CBA
:1011400049024FEA402037D04FF0805343EA111153
:1011500043EA10130CF000408B4238BF5B0042F1B1
:101160007D024FF4000C8B4224BF5B1A40EA0C0056
:10117000B3EB510F24BFA3EB510340EA5C00B3EB88
:10118000910F24BFA3EB910340EA9C00B3EBD10F76
:1011900024BFA3EBD10340EADC001B0118BF5FEAC8
:1011A0001C1CE0D1FD2A3FF650AF8B4240EBC250F1
:1011B00008BF20F0010070470CF0004C4CEA5020B2
:1011C0007F32C2BFD2F1FF0340EAC250704740F401
:1011D00000004FF00003013A37E792F0000F00F0F3
:1011E000004C02BF400010F4000F013AF9D040EA71
:1011F0000C0093F0000F01F0004C02BF490011F405
:10120000000F013BF9D041EA0C0195E70CEAD153FC
:1012100092EA0C0F08D142027FF47DAF93EA0C0FE3
:101220007FF470AF084676E793EA0C0F04D14B02C7
:101230003FF44CAF08466EE730F0004C18BF31F079
:10124000004CCAD130F000427FF45CAF31F0004373
:101250007FF43CAF5FE700BF4FF0FF3C06E000BF0C
:101260004FF0010C02E000BF4FF0010C4DF804CD2F
:101270004FEA40024FEA41037FEA226C18BF7FEA3F
:10128000236C11D001B052EA530C18BF90EA010F41
:1012900058BFB2EB030088BFC81738BF6FEAE170D0
:1012A00018BF40F0010070477FEA226C02D15FEA6C
:1012B000402C05D17FEA236CE4D15FEA412CE1D0D8
:1012C0005DF8040B704700BF844608466146FFE79F
:1012D0000FB5FFF7C9FF002848BF10F1000F0FBD81
:1012E0004DF808EDFFF7F4FF0CBF012000205DF87A
:1012F00008FB00BF4DF808EDFFF7EAFF34BF0120FF
:1013000000205DF808FB00BF4DF808EDFFF7E0FF97
:1013100094BF012000205DF808FB00BF4DF808EDE8
:10132000FFF7D2FF94BF012000205DF808FB00BF4B
:101330004DF808EDFFF7C8FF34BF012000205DF82D
:1013400008FB00BF4FEA40024FEA41037FEA226CEC
:1013500002D15FEA402C08D17FEA236C02D15FEA18
:10136000412C02D14FF0000070474FF00100704750
:101370004FEA4002B2F1FE4F0FD34FF09E03B3EBA2
:1013800012620DD94FEA002343F0004310F0004FE2
:1013900023FA02F018BF404270474FF00000704738
:1013A00012F1610F01D1420205D110F0004008BFD7
:1013B0006FF0004070474FF00000704742000ED2BF
:1013C000B2F1FE4F0BD34FF09E03B3EB126209D480
:1013D0004FEA002343F0004323FA02F070474FF036
:1013E0000000704712F1610F01D1420202D14FF0AB
:1013F000FF3070474FF00000704700BFB0FA80F038
:10140000704700BF7BB972B90029BEBF00204FF002
:10141000004106E008BF00281CBF6FF000414FF0FC
:10142000FF30FEF79DBFADF1080C6DE904CE002939
:1014300009DB002B1ADB00F00AFDDDF804E0DDE932
:10144000022304B07047404261EB4101002B1BDBDB
:1014500000F0FDFCDDF804E0DDE9022304B04042C9
:1014600061EB4101524263EB43037047524263EB2D
:10147000430300F0ECFCDDF804E0DDE9022304B0F6
:10148000404261EB41017047524263EB430300F07D
:10149000DEFCDDF804E0DDE9022304B0524263EB38
:1014A0004303704753B94AB9002908BF00281CBF3D
:1014B0004FF0FF314FF0FF30FEF752BFADF1080C97
:1014C0006DE904CE00F0C3FCDDF804E0DDE90223A1
:1014D00004B07047D0B5FFF7C1F80C4B00220646A8
:1014E0000F46FFF713F9FFF7E9FB0446FFF794F8FF
:1014F000074B0022FFF70AF902460B4630463946F1
:10150000FEF74CFFFFF7DAFB2146D0BD0000F03DAF
:101510000000F041D0B50C4B002206460F46FFF705
:10152000F5F8FFF7CBFB0446FFF776F8074B0022F0
:10153000FFF7ECF802460B4630463946FEF72EFF21
:10154000FFF7BCFB2146D0BD0000F03D0000F0419C
:1015500010F8012B11F8013B012A28BF9A42F7D05D
:10156000D01A7047034611F8012B03F8012B002A0B
:10157000F9D17047034613F8012B002AFBD1181A42
:101580000138704730B50446A0FB02054A4303FB0F
:101590000422511930BD10B500210446FFF7AAFE00
:1015A00020B92046BDE81040FFF794BF04F1004089
:1015B000FFF790FF404261EB410110BD38B50022BA
:1015C000002304460D46FFF713FB28B920462946A1
:1015D000BDE83840FFF79EBF204605F10041FFF708
:1015E00099FF404261EB410138BD2DE9F0430746C8
:1015F000081E53DA7F4260EB40004FF0FF35002BAE
:1016000004DA52426FEA050563EB430314463E4693
:1016100084461946002B40F0B4808442B2FA82F22C
:1016200040D94AB1C2F1200300FA02FC27FA03F3C1
:10163000944043EA0C0C9640200C1FFA84FEBCFB3D
:10164000F0F2330C00FB12CC02FB0EF843EA0C4321
:10165000984525D9E31802F1FF3703D2984501D9FF
:10166000971E2344A3EB0803B6B2B3FBF0F200FBD2
:10167000123302FB0EFC46EA0346B4457FD9A61995
:1016800002F1FF3002D2B44500D9901E40EA074073
:1016900015B1404261EB4101BDE8F0830025AEE7A2
:1016A0001746DFE75ABB031B0121200C1FFA84FCFD
:1016B000B3FBF0FE320C00FB1E330EFB0CF842EACB
:1016C0000343984559D9E3180EF1FF3704D29845E2
:1016D00002D9AEF102072344A3EB0803B6B2B3FB71
:1016E000F0F200FB123302FB0CFC46EA0346B44561
:1016F00045D9A41902F1FF30C8D2A445C4E7C2F10C
:10170000200320FA03F79440904026FA03F30343A2
:101710004FEA144E9640B7FBFEF1A0B20EFB1177D4
:101720001A0C01FB00FC42EA0742944521D9A21899
:1017300001F1FF3703D2944501D98F1E2244A2EB59
:101740000C029BB2B2FBFEFC0EFB1C220CFB00F059
:1017500043EA024398420ED9E3180CF1FF3104D258
:10176000984202D9ACF1020123441B1A41EA074115
:101770009BE70F46E3E76146F7E77746ACE710469D
:1017800084E7834258D8B3FA83F434B9834201D34F
:10179000BA4251D8002101207AE7C4F1200122FA8F
:1017A00001F6A3401E4320FA01F3A04027FA01F1FD
:1017B00001434FEA16481FFA86FCB3FBF8FE08FB0C
:1017C0001E300B0C0EFB0CF943EA0043994502FA5C
:1017D00004F22DD9F3180EF1FF3004D2994502D945
:1017E000AEF102003344A3EB090389B2B3FBF8FE68
:1017F00008FB1E330EFB0CFC41EA03418C4519D952
:1018000071180EF1FF3304D28C4502D9AEF10203F8
:10181000314443EA0040A1EB0C01A0FB02239942B2
:1018200003D303D1A740974200D2013800212FE70C
:101830007046D8E77346ECE70021084628E7B1F187
:10184000000C2DE9F0474ADA40426CEB4C0C4FF0AB
:10185000FF35002B02DA524263EB4303164604467F
:101860006146002B7FD16645B2FA82F239D93AB18E
:10187000C2F12003914020FA03F3964019439440AB
:10188000370CB0B2B1FBF7F307FB131100FB03FCFD
:10189000230C43EA01439C4504D9F31802D29C452A
:1018A00088BF9B19A3EB0C03A4B2B3FBF7FC07FBA7
:1018B0001C3300FB0CF144EA0344A14204D934195F
:1018C00002D2A14288BFA419641A24FA02F00021AE
:1018D0001DB14442204661EB4101BDE8F08700257F
:1018E000B7E76AB9ACEB0603370CB0B2B3FBF7F15C
:1018F00007FB113300FB01FC210C41EA0343CAE75B
:10190000C2F120032CFA03F196400CFA02FC20FAF3
:1019100003F343EA0C03370CB0B2B1FBF7FC00FB56
:101920000CFE07FB1C1C190C41EA0C418E4504FA05
:1019300002F404D9711802D28E4588BF8919A1EB2F
:101940000E019BB2B1FBF7FC07FB1C1100FB0CF076
:1019500043EA0143984204D9F31802D2984288BF5F
:101960009B191B1AC0E76345B2D8B3FA83F64EB988
:10197000634501D3824203D8841A6CEB03031946F2
:101980002046A5E7C6F12004B34022FA04F71F431E
:1019900020FA04F12CFA04F30CFA06FC41EA0C01DB
:1019A0004FEA17491FFA87FCB3FBF9FE09FB1E3803
:1019B0000B0C0EFB0CFA43EA08439A4502FA06F2B6
:1019C00000FA06F03AD9FB180EF1FF3804D29A4516
:1019D00002D9AEF102083B44A3EB0A0389B2B3FB80
:1019E000F9FE09FB1E330EFB0CFC41EA03418C455A
:1019F00026D979180EF1FF3304D28C4502D9AEF105
:101A00000203394443EA0843A3FB0238A1EB0C016B
:101A100041459E46C44602D305D1984203D2B3EB5A
:101A2000020E68EB070CB0EB0E0361EB0C0101FA40
:101A300004F4F34044EA0300F14049E7F046CBE701
:101A40007346DFE72DE9F04306460F460546144688
:101A500008461946002B40F0A780BC42B2FA82F239
:101A600037D93AB1C2F12003904026FA03F39440EB
:101A7000184395404FEA144CA6B2B0FBFCF22B0C75
:101A80000CFB120002FB06FE43EA00439E451ED9F2
:101A9000E31802F1FF3703D29E4501D9971E234474
:101AA000A3EB0E03ADB2B3FBFCF20CFB12335643B7
:101AB00045EA0345AE4275D9651902F1FF3002D2FD
:101AC000AE4200D9901E40EA0740BDE8F0831746B9
:101AD000E6E74ABB3B1B0121200CA6B2B3FBF0FC9E
:101AE0002A0C00FB1C330CFB06FE42EA03439E4516
:101AF00056D9E3180CF1FF3704D29E4502D9ACF158
:101B000002072344A3EB0E03ADB2B3FBF0F200FBDC
:101B10001233564345EA0345AE4243D9641902F1F4
:101B2000FF30D0D2A642CCE7C2F1200127FA01F65D
:101B3000944007FA02F325FA01F10B434FEA144CE3
:101B40009540B6FBFCF1A0B20CFB11661A0C01FB30
:101B500000F742EA064297421ED9A21801F1FF3669
:101B600003D2974201D98E1E2244D21B9BB2B2FBF4
:101B7000FCF70CFB1722784343EA024398420DD945
:101B8000E31807F1FF3103D2984201D9B91E23446B
:101B90001B1A41EA06419FE70E46E6E73946F7E79A
:101BA0006746AFE710468EE7BB4257D8B3FA83F4D7
:101BB00034B9BB4201D3B24250D80021012084E79E
:101BC000C4F1200522FA05F0A340184326FA05F1D6
:101BD00007FA04F327FA05F84FEA104E1943B8FB49
:101BE000FEFC85B20EFB1C880B0C0CFB05F943EACE
:101BF0000843994502FA04F22CD9C3180CF1FF37B7
:101C000004D2994502D9ACF102070344A3EB0903BE
:101C100089B2B3FBFEFC0EFB1C330CFB05F541EA5D
:101C200003418D4218D941180CF1FF3304D28D4283
:101C300002D9ACF10203014443EA0740491BA0FB6F
:101C40000223994203D303D1A640964200D2013821
:101C500000213AE76746D9E76346EDE700210846E9
:101C600033E72DE9F043164604460D46002B40F0BD
:101C700081808E42B2FA82F230D93AB1C2F12003A9
:101C8000954020FA03F396401D439440300CB1B2C6
:101C9000B5FBF0F301FB03F700FB1355230C43EAFC
:101CA00005439F4204D9F31802D29F4288BF9B1973
:101CB000DB1BB3FBF0F5694300FB1533A4B244EA28
:101CC0000344A14204D9341902D2A14288BFA41905
:101CD000641A24FA02F00021BDE8F083D2B98B1B0C
:101CE000350CB0B2B3FBF5F100FB01F705FB113386
:101CF000210C41EA03439F4204D9F31802D29F42C8
:101D000088BF9B19DB1BB3FBF5F700FB07F105FB55
:101D10001733D3E7C2F1200321FA03F7964091402D
:101D200020FA03F30B43350CB0B2B7FBF5F100FB1F
:101D300001FC05FB1177190C41EA07418C4504FAB7
:101D400002F404D9711802D28C4588BF8919A1EB1D
:101D50000C019BB2B1FBF5F705FB1711784343EA81
:101D60000143984204D9F31802D2984288BF9B19C4
:101D70001B1AB5E78B42AFD8B3FA83F656B98B423C
:101D800001D3824203D8841A61EB03031D46204627
:101D90002946A1E7C6F12004B34022FA04F71F4305
:101DA00021FA04FC01FA06F320FA04F14FEA17487D
:101DB0001943BCFBF8FEBDB208FB1ECC0B0C0EFB9E
:101DC00005F943EA0C43994502FA06F200FA06F0D7
:101DD00039D9FB180EF1FF3C04D2994502D9AEF176
:101DE000020C3B44A3EB090389B2B3FBF8FE08FBEA
:101DF0001E330EFB05F541EA03418D4225D97918C2
:101E00000EF1FF3304D28D4202D9AEF10203394400
:101E100043EA0C43A3FB023E491B71459C467546B1
:101E200002D305D1984203D2B3EB020C6EEB070547
:101E3000B0EB0C0361EB050101FA04F4F34044EA52
:101E40000300F14048E7F446CCE77346E0E72DE9AC
:101E5000F04786468C460846089E15467446194645
:101E6000002B40F0C2808542B2FA82F245D94AB1D5
:101E7000C2F1200300FA02FC2EFA03F3954043EA74
:101E80000C0C94404FEA154EA8B2BCFBFEF8230C94
:101E90000EFB18CC08FB00F943EA0C43994528D9FE
:101EA000EB1808F1FF3704D2994502D9A8F10207CF
:101EB0002B44A3EB0903A4B2B3FBFEFC0EFB1C33C3
:101EC0000CFB00F044EA0344A04214D92C190CF195
:101ED000FF3304D2A04202D9ACF102032C44241AED
:101EE00043EA07401EB1D440002334607360BDE86C
:101EF000F0874746DDE76346F1E792BB431B0121CC
:101F00004FEA154EAFB2B3FBFEFC200C0EFB1C33A8
:101F10000CFB07F840EA0343984562D9EB180CF133
:101F2000FF3004D2984502D9ACF102002B44A3EB58
:101F30000803A4B2B3FBFEFC0EFB1C330CFB07F73B
:101F400044EA0344A7424ED92C190CF1FF3304D2C2
:101F5000A74202D9ACF102032C44E41B43EA00403F
:101F6000C0E7C2F1200320FA03F1954090402EFA19
:101F700003F303434FEA154EAFB2B1FBFEFC0EFB79
:101F80001C10190C0CFB07F841EA0041884504FAC3
:101F900002F422D969180CF1FF3004D2884502D925
:101FA000ACF102002944A1EB08019BB2B1FBFEFC9D
:101FB0000EFB1C110CFB07F743EA01439F420ED9AD
:101FC000EB180CF1FF3104D29F4202D9ACF10201AF
:101FD0002B44DB1B41EA004192E76046E3E76146A0
:101FE000F7E76046A3E76346B7E7834206D916B929
:101FF000002108467BE7C6E900E0F9E7B3FA83F77A
:102000008FB9834201D3724508D8BEEB020460EB5E
:10201000030301209C461EB9002168E73846FAE711
:10202000C6E9004CF8E7C7F1200CBB4022FA0CF4DB
:102030001C432EFA0CF120FA0CF3B84001434FEA8E
:1020400014490EFA07F5B3FBF9F81FFA84FE09FBF1
:1020500018300B0C08FB0EFA43EA00439A4502FACB
:1020600007F240D9E31808F1FF3004D29A4502D9AB
:10207000A8F102002344A3EB0A0389B2B3FBF9F8E9
:1020800009FB183308FB0EFE41EA03418E452CD9AB
:10209000611808F1FF3304D28E4502D9A8F102037A
:1020A000214443EA0040A0FB0298A1EB0E01414508
:1020B000CE46434602D306D14D4504D2B9EB020EBB
:1020C00068EB04030138002EA6D0B5EB0E0261EBDD
:1020D000030101FA0CFC22FA07F34CEA0303F9406E
:1020E000C6E9003198E74046C5E74346D9E7000016
:1020F00008B5C1B2024816F0DEFD012008BD00BFE0
:10210000A6AF010808B50D480FF04CFF0C4A00239C
:10211000C2F89830D2F8A010C90048BFD2F8A01079
:1021200003F1010344BF61F08051C2F8A010082BF5
:10213000EED1BDE8084000F027B800BFF12000084C
:1021400000ED00E04B1C10B50C4602D100231846F0
:1021500010BD084B1B68084643B198470028F5D0CE
:102160002246002117F09CFC0346F0E701F074F9C9
:10217000F4E700BF9CA30120024B1B6803B1184782
:1021800001F0C8B998A3012038B50F4C2578C5B91E
:102190000E4813F046F80E4813F043F80D4813F0BC
:1021A00040F80D4B2C221846294617F079FC0346BF
:1021B00018F074F8094A12585A60094A136001234A
:1021C0002370002038BD00BFC4A50120F8A3012062
:1021D000B8A30120A0A30120CCA301200800000087
:1021E000B4A30120024B1A780AB100221A7070477A
:1021F000C4A5012000B518F051F8024B18585DF83D
:1022000004FB00BF0800000000B518F047F8024BBF
:102210001B58186E5DF804FB08000000F8B50C6848
:10222000A30F012B06460F4604D0012386F8B830D1
:102230000020F8BD184B03EAC403F72BD0E901C214
:1022400020D800EB53050CEB02012A6A9AB1002456
:102250009445EAD89142E8D953681BB997420AD10C
:102260003CB916E09742134410D014461A46EFE7E3
:102270001B1B63600EE00022084B1146012000F09A
:10228000EBFB07E0BDE8F84012F0EBBF002CEFD10C
:102290001C462C620120CCE7F8FFFF3FA9AF0108E4
:1022A000F0B50B681F4E03F0605343EAD20343F0CE
:1022B0008043D0E901750B6006EAC303CE18F72A04
:1022C0003D444FEAD20446F8043C0DD88F4224D84E
:1022D0008D4222D900EB8402136A1BB94B60116254
:1022E00001201EE05B1AF9E70023C1E902330A610D
:1022F0004B60D0F8B4301C69944206D29C6844B953
:102300009960CB60ECE72346F5E75C680CB959604F
:10231000F7E7BC4201D3AC42F5D3012380F8B830D3
:102320000020F0BDF8FFFF3F2DE9F04101F10B085F
:1023300028F00708414504460D4608D890F8B870C3
:102340004FB10022144B1146012000F085FB002400
:102350002046BDE8F08100F10C06304612F06AFF1D
:102360002046414612F0E8FF044688B103680B4A54
:10237000291D02EAC30223F0504343F00043914277
:1023800044F8043B04D2521A6019394617F088FB0E
:10239000304612F055FFDBE7DEAF0108F8FFFF3FE4
:1023A0002DE9F84F05460C4651B190F8B83053B1BD
:1023B0000022384B1146012000F04EFB4FF0FF3455
:1023C0002046BDE8F88FD0E901A600F10C090F1FE7
:1023D000484612F02FFF574559D30AEB06084745E8
:1023E00055D254F8043C9A0F022A05D04FF0FF341E
:1023F000484612F025FFE3E7DA00F7D4264E06EA56
:10240000C306D5F8C4303344C5F8C43054F8043C8E
:102410009B0017D454F8084C3C1BA24512D8A04589
:1024200010D9D4F800B04FEA9B73012B0AD1214692
:102430002846FFF7F3FE0028D8D0174B03EACB035A
:102440001E442746BC19A24512D8A04510D9D4F87D
:1024500000B04FEA9B73012B0AD121462846FFF7B3
:10246000DDFE0028C2D00C4B03EACB031E44BC198E
:10247000324639462846FFF713FF0028B6D05445A8
:1024800005D344453EBF236823F000532360002456
:10249000AEE700BF14B00108F8FFFF3F2DE9F74F8A
:1024A00002F10B0424F00704A24206460D460AD8A6
:1024B00090F8B8B0BBF1000F0AD00022484B11468B
:1024C000012000F0C9FA0024204603B0BDE8F08FD7
:1024D00019BB00F10C07384612F0ACFEA8462146A5
:1024E000304612F029FF0446002842D0026822F04C
:1024F000504343F0004344F8043B3A4B03EAC2091B
:10250000A9F104094A460021204617F0C9FA002D16
:1025100057D1384612F094FED6E751F8043CDFF864
:10252000C49009EAC308444549D900F10C07426840
:102530000192A1F1040A81680091384612F07AFEF6
:10254000019A0AEB08039342C9D300990A449342C3
:10255000C5D21A68910F0129C1D109EAC209C14443
:10256000A145BCD3194630460093FFF757FE009BA8
:1025700018B9384612F064FEA5E755F8042C02F0AD
:10258000784242EAD40245F8042C5946A4EB0802EA
:10259000184617F085FAA1450ED9A9EB04020AEBFB
:1025A00004013046FFF77CFE0028E2D05AF80430E0
:1025B00043F000534AF80430384612F041FE2C46EE
:1025C00082E74946A8F104032A46204612F0EBFFB1
:1025D000384612F035FE29463046FFF7E1FE73E734
:1025E000DEAF0108F8FFFF3F2DE9F0410D46174629
:1025F0000021C822044617F053FA3A460021284623
:1026000017F04EFA04F10C0012F00DFE064648B128
:1026100000221C4B1146012000F01EFA0024204627
:10262000BDE8F081C4E93007C4E901574FF0140850
:1026300004F1A007014642462460C4F8B47038464D
:1026400017F02EFAD4F8A030C4F8B08003F060532D
:1026500043F0804343F00203C4F8A0301022314617
:10266000281D17F01DFA4FF080432B60A368DB088C
:1026700043F0C0432B60C4F8A850EF60A3682B61FF
:10268000CDE700BF46B0010807B5FF2900EB010206
:1026900000F1070020F0070009D900F1CC01521A1F
:1026A00022F0070203B05DF804EBFFF79DBF0022A4
:1026B0004FF48073CDE900130120044B114600F064
:1026C000CBF9002003B05DF804FB00BF65B0010842
:1026D00013B5144610F0070208D0154B002211461E
:1026E000012000F0B9F9002002B010BD032908D87C
:1026F0000423CDE900130F4B1146012000F0ACF983
:10270000F1E714F0070101D00B4BE8E7FF2B06D8E7
:102710004FF48072CDE90032084B0A46ECE7043BE7
:1027200023F00702211D02B0BDE81040FFF75CBF97
:102730008DB00108C0B00108F0B0010865B0010813
:102740002DE9F843044613466668081D8D1811F0FC
:102750000702A0EB060608D02E4B002211460120EE
:1027600000F07AF94FF0FF300BE0043BA84223F071
:10277000070302D8A168994201D9274BEDE716B9A2
:102780000020BDE8F88394F8B8300BB1234BE5E79F
:10279000D4F8B45060603146281D12F084FE05F173
:1027A000080012F080FE05F10C0012F07CFED4E966
:1027B0000157DFF86C802F44BD4201D3E0D006E022
:1027C0002B6818EAC30902D07A1B4A4509D20022B5
:1027D000124B1146012000F03FF9012384F8B83074
:1027E000C0E79B0F012B13D1B9F1F70F10D9314678
:1027F000281D12F058FE05F1080012F054FEEA6898
:10280000D4F8B4309A4203D005F10C0012F04BFE1C
:102810004D44D1E721B1010855B1010883B1010848
:10282000F8FFFF3F03282DE9F04706468A46914608
:1028300098460CD9B0F5803F0AD9214B00221146A9
:10284000012000F009F900242046BDE8F0870426A5
:10285000B9F1000F02D0B8F1000F01D1194BEDE72B
:10286000BAF1000F06F106054FEA850514BF1427DB
:102870000027EF19384600F0EFFD044608B9124B67
:10288000DCE73A46002117F00BF9BAF1000F0ED041
:102890006019606012F0C7FC48B100220B4B114672
:1028A000012000F0D9F8204600F034FECBE7089B69
:1028B0002361099B2660C4E902986361C4E700BFF5
:1028C000B6B10108E1B1010827B2010854B201080C
:1028D0002DE9F0410E461746044600B139B90022F1
:1028E000204B1146012000F0B7F8002035E0406889
:1028F00008B112F09FFCA368304698472568B0FBEA
:10290000F5F202FB150504EB8505D5F81880B8F142
:10291000000F05D10C2000F09FFDB0B9124B06E06E
:10292000E368D8F800003146984758B10F4B0022B1
:102930000120114600F090F860680028D5D012F010
:102940007FFCD2E7D8F80880E1E7C0E90067AB690F
:102950008360A861606810B90120BDE8F08112F0C1
:102960006FFCF9E782B20108E6B20108B3B20108D0
:1029700070B50E46044600B139B90022154B114618
:10298000012000F069F800251FE0406808B112F04E
:1029900051FCA368304698472368B0FBF3F202FB72
:1029A0001300063054F820502DB960680028EAD092
:1029B00012F046FCE7E7E36828683146984730B1F3
:1029C00060686D6808B112F03BFC284670BDAD68C8
:1029D000EAE700BF18B301082DE9F041044640B909
:1029E00002460146184B012000F036F82046BDE8AB
:1029F000F081406808B112F01DFC04F114070026B4
:102A00002368B3420BD8606820B112F019FC6068EB
:102A100012F00EFC204600F07DFD0120E7E757F89C
:102A2000045F0DB90136EBE72369D5F808800BB1D7
:102A30002868984763690BB168689847284600F092
:102A400069FD4546EDE700BF47B30108014B18603B
:102A5000704700BF4000002008B42DE9F041164641
:102A60008FB01C2204460D460DEB0200002106919A
:102A700017F016F8224B1B689C423CD8FFF7BAFBB4
:102A8000074612F0E0FB1F4A0023FEF70BFD194634
:102A90001D4B04461046B4FBF3F202FB13444FF403
:102AA00061634FF47A72B4FBF3F803FB184400231C
:102AB000FEF7F8FC3C22B4FBF2F302FB1344CDE931
:102AC0000034124A02902021434606A811F0D6FC99
:102AD0000F483A4606A912F072FB25B10D4832465E
:102AE000294612F06CFB16A91598059112F074FB9B
:102AF000094812F064FB0FB0BDE8F04101B0704727
:102B00004000002040420F00805101006DB30108D9
:102B100081B301088EB30108CCF4010810B5044656
:102B200038B9024601460C4B0120FFF795FF2046BD
:102B300010BD406808B100F0EDFC206920B112F032
:102B400077FB206900F0E6FC14220021204616F0F5
:102B5000A7FF0120ECE700BF9CB3010810B588B0C7
:102B600014F0B7FA054904466846FEF7FBFC6946CF
:102B7000204614F0E4FA08B010BD00BFC9B3010844
:102B800030B589B00D4614F0A4FA064A04462B4627
:102B90002021684611F072FC6946204614F0CFFAF5
:102BA00009B030BDE4B3010830B589B00D4614F06A
:102BB00090FA064A04462B462021684611F05EFC36
:102BC0006946204614F0BBFA09B030BDF7B30108DE
:102BD00030B589B00D4614F07CFA064A04462B46FF
:102BE0002021684611F04AFC6946204614F0A7FAF5
:102BF00009B030BD12B4010830B589B00D4614F0EB
:102C000068FA064A04462B462021684611F036FC35
:102C10006946204614F093FA09B030BD20B401088B
:102C200008B5024812F0CBFA012008BDA6AF010892
:102C3000014812F0C4BA00BFA8EC010838B50D462F
:102C400004460146034812F0BAFAAB680133AB60A0
:102C5000204638BDA6AF01082DE9F04FB1B01C46A3
:102C6000074688463A98154607AB0022214613F0DE
:102C7000B1F80490002800F01B814FF00009039583
:102C8000CA46002374E02BB9252800F0C3814146D1
:102C9000B847F6E76E2800F2B48057280BD82E28E4
:102CA00062D81F283CD841462520B847039B41469F
:102CB00013F8010CECE758381628F4D801A252F8A2
:102CC00020F000BF552E0008A72C0008A72C0008F4
:102CD000A72C0008A72C0008A72C0008A72C000888
:102CE000A72C0008A72C0008A72C0008A72C000878
:102CF000552E0008552E00088D2D00088D2D00083A
:102D00008D2D0008712D0008552E00082130000877
:102D1000A72C00084F2E0008A72C0008832C0008C1
:102D200020380E28BFD801A252F820F0712D0008DB
:102D3000A72C0008A72C0008712D0008A72C00085C
:102D4000FF2F0008A72C0008A72C0008A72C0008BC
:102D5000A72C0008A72C0008712D0008A72C00083C
:102D6000712D0008712D000839280CD82F289AD011
:102D7000039E324612F8010B0392002883D1049877
:102D800031B0BDE8F08F453802288CD8A6EB090693
:102D900006F1020BBBF11F0F40F23481584600F0E0
:102DA0005BFB0546002861D05A460021284616F0F4
:102DB00077FE731C4A465946284612F0F4FBE31D81
:102DC000079A23F0070303F1080494426AD8D3E971
:102DD00000234021CDE900230DEB01002A4611F02C
:102DE0004DFB002805DD10AE16F8010B002840F061
:102DF0000E8108AB9D423FF444AF284600F08AFBA9
:102E00003FE76F38C0B20B283FF64DAF012282403A
:102E100040F243210A421DD112F4026F40F0FE80BD
:102E200004287FF440AFA6EB090606F1020BBBF1C4
:102E30001F0F7FD9584600F00FFB054600287DD1B3
:102E40004146384612F07CFC2646344619E70AF122
:102E5000010A8DE7A6EB090606F1020BBBF11F0F75
:102E600009D9584600F0F8FA054640B941463846B7
:102E700012F066FC05E74FF0200B0DEB0B055A46F0
:102E80000021284616F00CFE731C4A465946284677
:102E900012F089FBBAF1010F079B32DC04F1040B3D
:102EA0009B450AD908AB9D4202D0284600F032FB70
:102EB0005D493A9814F043F95DE0BAF1010F2368D7
:102EC0000ED1721EA818A95C6C39C9B20E2907D898
:102ED000564A0A4112F0010202BFA95D0170AA55CB
:102EE00040212A460DEB010011F0C8FA002803DD4D
:102EF00010AC14F8010BB0B908AB9D4216D15C467A
:102F0000BFE6073424F0070404F1080B9B45C9D839
:102F1000D4E900234021CDE900230DEB01002A462E
:102F200011F0ACFAE2E74146B847E2E7284600F084
:102F3000F1FAE4E74FF0200B0DEB0B055A460021A8
:102F4000284616F0ADFD731C4A465946284612F035
:102F50002AFB079B261D9E42A4D822683A98059218
:102F6000002300F053FB059A40B908AB9D4202D004
:102F7000284600F0CFFA0023049300E700233A9894
:102F8000059212F0F0FE8346FEF7F4FA00F14001DC
:102F90008029059A12D90846059100F05DFA059935
:102FA000044680B94146384612F0CAFB08AB9D4240
:102FB0003FF44BAF284600F0ADFA46E7104310ACA3
:102FC00008BF4FF0000B5B462A46204611F056FA28
:102FD000002804DD04F1FF3B1BF8010F40B908ABEA
:102FE0009D4208D110AB9C423FF42FAF2046E2E750
:102FF0004146B847F0E7284600F08CFAF2E7414630
:10300000252045E64FF0200B0DEB0B05CCE64146A5
:10301000B847E9E69A46B1460123A9E69A46A7E6EB
:103020004FF0020AA4E600BF2DB40108FEBEFFFF68
:103030002DE9F04186B00C46DDF8308017461D467C
:1030400014F047F8042200234146064600F0BCFA7B
:1030500018B9002006B0BDE8F081CDE90347084863
:103060000096002743462A4603A90597FFF7F4FD7B
:103070000028EED0DDE90430984238BF2754E9E754
:103080005D5701082DE9F04186B01E460C461746F3
:1030900014F01FF8042200233146054600F094FA8C
:1030A00050B102AB00222146284612F093FE38B9F7
:1030B0000F49284614F043F8002006B0BDE8F0811F
:1030C000029B0C4800951B1B04934FF000083346ED
:1030D0003A4603A90394CDF81480FFF7BDFD0028FC
:1030E000EAD0DDE90430984238BF04F80080E4E714
:1030F0002DB401085D57010870B586B014460D4621
:1031000013F0E7FF0023CDE90333059304220023E6
:103110002146064600F058FA10B9002006B070BDEE
:103120000548009623462A4603A9FFF795FD002887
:10313000F3D00598F2E700BF3D2C000810B5144607
:1031400013F0C7FF10220023214600F03DFA68B1BA
:1031500012F079F8074A0023FEF7A4F94FF47A73C6
:103160005A43C4E90001A260002010BD4FF0FF30B7
:10317000FBE700BF40420F00014B03603420704763
:10318000440000202DE9F0410E4614460746F0B1F8
:1031900009B312B3124D4FF00308B8F1010801D181
:1031A000404614E028683946FEF7D2F988B96868C5
:1031B0003146FEF7CDF960B92B7A23726B7A6372D0
:1031C000103595E80F00103484E80F000120BDE8A9
:1031D000F0812035E1E70846F9E71046F7E700BF40
:1031E0000000002013B548B1054C0092054A002BA1
:1031F0000CBF23461346044A11F040F902B010BD3B
:1032000071B601086DB6010876B60108012870B5DF
:103210000C4615461E461CD910F002020DD00E4B6E
:10322000002211460420FFF717FC33460B4A2046C4
:103230002946FFF7D7FF002070BD410701D5084B95
:10324000EFE70728F2D800F00300022801D1054A71
:10325000EDE70120F0E700BF90B60108EBB60108EA
:1032600000B7010830B701080128F8B504460D463B
:1032700016461F4601D80120F8BD820704D50A4A28
:1032800031462846FFF7AEFF630707D5074A3B469E
:1032900028463146FFF7A6FF0020EDE7052CEAD9C6
:1032A000034A3B46F4E700BF50B7010868B701087E
:1032B000EBB6010837B505460C46194663191046AA
:1032C00002D2002003B030BD034A00942B4611F017
:1032D000D5F80120F6E700BFADB701087FB5044679
:1032E0000020039003A80190089800902068DDE971
:1032F000095612F099F9032810D8DFE800F0020906
:1033000011142368039A13442360012004B070BD94
:10331000064A002331462846FFF764FF0020F5E700
:10332000034A0023F6E7034A0023F3E7D7B701086F
:10333000F7B70108A7BD010873B5069D079C089E55
:1033400011460022012C08BF9542034608D1104BBC
:1033500011460220FFF780FB0024204602B070BD1A
:1033600080B12A4611F03AFF04460028F4D0032227
:10337000314611F04EFF0028EFD029462046FEF7D7
:10338000FBFEE9E7009002462946FEF7DBFEEBE78D
:1033900009B8010830B585B0D0B9D1E9005421464B
:1033A000284612F0CCF8024640B11B4B012119709F
:1033B0001A4B18601A4B1C60012007E00146CDE94A
:1033C0000054184B0120FFF747FB002005B030BD2B
:1033D00001281AD1D1E900308A6863B15AB1934209
:1033E00009D00D4902240C700F490B600F4B186077
:1033F0000F4B1A60E0E7CDE901020022009311466D
:103400000C4B0120FFF728FBDFE70228DDD1024B40
:1034100003221A70D0E700BFC5A5012024A4012013
:103420000CA401204CB8010818A4012014A4012008
:1034300010A4012074B8010810B5054C2378012BA5
:1034400003D1044B186812F07EF80023237010BDDE
:10345000C5A5012024A4012010B530B902460146BB
:10346000114B0220FFF7F8FA0120104B1C789CB199
:10347000012C06D10E4B0146BDE81040186812F031
:1034800066B8022C04D10B4BBDE810401B681847EE
:10349000BDE8104011F08DBE074B224621460220A8
:1034A000FFF7DAFA204610BDA5B80108C5A501202E
:1034B00024A4012018A40120D2B8010810B5114C91
:1034C00024780A463CB9104B224621460220FFF7D9
:1034D000C3FA002010BD012C06D10C4B0146BDE8FB
:1034E0001040186812F035B8022C06D1084B1B6842
:1034F000002BEED0BDE810401847BDE8104011F099
:103500005ABE00BFC5A501200FB9010824A401209F
:1035100014A40120014620B90B4B02460220FFF7FC
:103520009BBA0A4B1A7812B9094B1146F6E7012AE1
:1035300003D1084B186812F00EB8022A02D1064BCC
:103540001B68184711F039BE4DB90108C5A5012007
:103550007BB9010824A4012010A40120054B1B788D
:10356000012B014603D1044B186811F0FCBF002069
:10357000704700BFC5A5012024A40120F8B5054669
:1035800012F0EDFBDDE906160446A0B1002701208C
:103590008F4270EB06070ED3D1F1000C60EB0607EB
:1035A00094459F4107D3891843EB0603D4E906628B
:1035B0008E429A4104D22846024913F0AEFD002003
:1035C000F8BD00BF2DB4010870B5044612F0C7FB6A
:1035D000054690B100260120964270EB03060CD3FD
:1035E000D6435B428E4273F1000306D32B6A8B42B3
:1035F00003D8AB6A11448B4204D22046024913F02F
:103600008CFD002070BD00BF2DB401082DE9FF41E5
:10361000054616461F4612F0A2FB40B91749284638
:1036200013F07BFD0024204604B0BDE8F08102A920
:103630004FF000080191CDF80080284612F0B2FB4F
:1036400004460028EAD0002FE8D10299039A884561
:103650004FF001039341E1D33B463246284612F036
:1036600082FB891B034601448B421A4604D212781E
:103670000133002AF8D1D6E7D5D1CFE72DB4010820
:103680002DE9F04198460646DDE9063712F067FB62
:1036900028B93046134913F040FD002013E0D0E96B
:1036A0000654AA4278EB040ED0F820C0F1D294441C
:1036B00059B9AD1A64EB08049D42BC41E9D3089B9B
:1036C0000120C3F800C0BDE8F081816A63468B42E7
:1036D0001A4601D3F3D1DCE712780133002AF6D180
:1036E000EDE700BF2DB401082DE9F04F80468DB005
:1036F00017460C46002976D0D1E90623CDE90623EA
:10370000CA680992D1E90462D1F820B00D6B8B6BC5
:103710000A921FB901200DB0BDE8F08FF6190DD245
:103720000A9AB24201D2012409E05B1B089322D01D
:10373000086C11F016FFF0B100F082FD0024B8F122
:10374000000F16D02A4B196899B1D8F80030294AD1
:10375000012B98BFD8F82831126888BF0023CDE923
:10376000033200230093CDE90148DDE90623384602
:1037700088470020CFE7099BA3FB069ACDE9029A70
:10378000DDE90623CDE9009A5846FFF7D5FD03464B
:103790000028D3D0089A22B3A0EB0B010B90294448
:1037A000206C11F0DCFE0B9BB0FA80F14909089AFD
:1037B0002362A5EB0B051D4425631544099AA563F7
:1037C000C4E903260A9AC4F81CA04B44C4E905299D
:1037D000A3624A465346204612F010FB002999D1B5
:1037E000ACE70121E3E700220023CDE90623A6E7A9
:1037F00020A401201CA40120F8B5074614200C4683
:1038000015461E46FFF728FE70B1084BC5601A68C2
:103810000260C0E9017418600674054B204610224E
:10382000294616F09DF90120F8BD00BF28A401200B
:10383000C16F01082DE9F04F8BB04FF000090593DF
:10384000704BDFF8C4A11C680490884616464D46AC
:10385000002C5CD12746059B002B00F0CC80149BEC
:10386000002B00F0C880159B002B00F0C480002FB7
:1038700000F0C080002D41D095F800A0BAF1000FF3
:1038800000F0BD80002E00F0AA802846FDF772FEF1
:10389000012840F2A480BAF1280F40F0A080B6F8C9
:1038A00000E0431E0EF101029342C0F09880691CB3
:1038B00000220B46724513F801CB5ED3BCF1290FF1
:1038C00040F08D80B6F802C0BCF1000F13D0284440
:1038D000834280F0848016444C48337C4A780690BA
:1038E000A3F17C0003287AD828336B4413F88C3C6E
:1038F000934274D18B1C1B78002B70D1059B159AB9
:103900001D60149BC3F80090237C137073E004992E
:103910006068D4F800B0FDF71BFE60BBD4E902126A
:103920001023CDE907000990CDF800A006A8CDF836
:10393000188016F0BDF820B14768D0E90259002F71
:1039400089D198F800305F2B15D10023D4E90212F9
:10395000CDE90733099308F101030693CDF800A0E0
:10396000102306A816F0A4F828B14768D0E9025938
:10397000002F7FF470AF5C466AE706EB020ADFF8BF
:103980008CB09AF810A0CDF818B0AAF17C0BBBF15E
:10399000030F24D80AF1280BEB441BF88CBCE34539
:1039A00017D0BAF17F0F1AD1BCF12A0F14D102F14E
:1039B000010CF4450DD206EB0C0A9AF810A0BAF1EE
:1039C0007F0F06D191F801A0BAF17E0F01D18B1CB7
:1039D0006246013219466CE7BCF1240FF9D0049B12
:1039E000CDF808800022CDE900531146084B022093
:1039F000FFF732F8002738460BB0BDE8F08F554688
:103A00007CE700BF28A40120C16F01084666496910
:103A1000BEB9010838B5054C206808B9206038BD2A
:103A20000568FFF777FD2846F7E700BF28A40120C7
:103A300013B501A8FFF7A0FB01990246084813F04F
:103A4000C7FA044640B1074B07480822602116F028
:103A500087F8204602B010BDFFF7DCFFF9E700BF92
:103A600016BA0108C96F010884030020F0B5058863
:103A7000448889B00023052DCDE90433CDE9063310
:103A8000039302D9002009B0F0BD012CFAD82822F6
:103A900004A98DF8102000F10F060F46AB4203F188
:103AA000010220D320326A442925991C02F8105CB7
:103AB00034B31844037C7F2B24D07E2BE2D14922DF
:103AC00001F120036B44104903F8102C0F4B0093B5
:103AD000082360220DEB0300029715F0E9FF002890
:103AE000D0D04068CFE716F8013F7F2B06D07E2B61
:103AF000C8D1492301F8013F1346CFE76923F9E70D
:103B00007622DDE76922DBE784030020C96F010824
:103B10000B4621B1034A8021683010F0AFBC80F819
:103B200068107047C0BC0108134610B1014A10F07C
:103B3000A5BC7047F1C3010870B506461546FFF7EE
:103B40008BFC044630B91DB105492846FFF7E0FF5C
:103B5000204670BD3246002115F0A2FFF8E700BFF5
:103B6000CEBC010808B5074A1368013B13603BB996
:103B7000FFF750FF11F01BFBBDE80840FFF75CBCEE
:103B800008BD00BF2CA40120014B1878704700BF6E
:103B9000C6A5012008B5034613F03BFA08B1014A57
:103BA000137008BDC6A5012070B5184D2E680446D7
:103BB00036BB014611F8040BFFF7ECFB08B90020F7
:103BC00070BD94F8B400FFF7E5FF10B9FFF734FCBF
:103BD000F5E794F8C4302BB10D4B32463146022044
:103BE000FEF73AFF13F00AFA0028EFD0E2693AB183
:103BF000D4E9050113F0ECF910B9FFF7B3FFDEE7E4
:103C00002B6801332B600120DAE700BF2CA40120D0
:103C1000E5BC010810B5014604460A48FDF798FCCA
:103C200070B109482146FDF793FC48B10748214689
:103C3000FDF78EFC20B12078B0FA80F0400910BD6D
:103C40000120FCE716BA01083CBD01084ABD010885
:103C5000F7B5089E07461C4615463AB9144A314640
:103C60002046FFF761FF002003B0F0BD032901D813
:103C7000104AF4E713F0D2F918B101280CD00E4A1B
:103C8000EDE700962346384613F0E2FD0028EAD01F
:103C90006B7980F8D030E7E70096234638460AF083
:103CA000C7FF0028DFD06B7980F8DC30DCE700BF8D
:103CB00061BD01088EBD0108B6BD01081FB5002415
:103CC00003940093034C0294134602AAFFF7C0FF2B
:103CD00004B010BDCDF4010838B50D46144688B1C6
:103CE000884207D200220220074B1146FEF7B4FE9D
:103CF000284638BD9042FCD90022044B11460220D0
:103D0000FEF7AAFE2046F4E7E9BD010830BE01082F
:103D100070B50468DDE904561CB9BDE8704008F0D0
:103D200099B8012C03D1BDE870400BF063BA284666
:103D3000024A3146FFF7F8FE002070BD75BE01084B
:103D40002DE9F041164604460D461F4613F043F98F
:103D5000024638B901460F4B0120FEF77DFE0020D8
:103D6000BDE8F081A3681B684BB1012BF7D13B463E
:103D7000324629462046BDE8F0410BF069B93B4682
:103D800032462946204613F0AFFDA3681B68012B7D
:103D9000E6D1ECE7A4BE0108212996BF024B0349F6
:103DA00053F82110FFF7B4BE08A9010801BF0108AC
:103DB0000149FFF7ADBE00BFC1BE01082DE9F04FBC
:103DC0001546A9B088460393834611F07CFF6E88A0
:103DD0002988012E38BF0126731E03EB41010231F1
:103DE000202905930746339B0AD98800DBF8082071
:103DF000890FFFF7A1FE339B044610B905465AE030
:103E000008AC05F10F02DDF80CA0C4F800B0049274
:103E10004FF00109039A2888AAEB020290421FD8AA
:103E200006F1804604EB8902013E043A03EB860664
:103E30009E4276D1329BCBF83430059A6B884A4447
:103E4000002B73D14F4B21461B68404698470023F7
:103E5000CBF8343097F86850B5FA85F56D0924E051
:103E6000049911F8012F04917C3A032A3BD8DFE82A
:103E700002F03D513D02194651F8042B0691039979
:103E800061B39AF801002A2819D19AF80200079222
:103E90007E280CBF5B680123009300230193384602
:103EA000FFF76CFB079AA0B9002508AB9C4202D033
:103EB0002046FFF72FFB284629B0BDE8F08F2428C5
:103EC0000CD1002338460792FFF7A0FB0028EBD067
:103ED000079A0023384611F046FF0246069B44F835
:103EE000292009F101090AF1010A93E7184619F09E
:103EF000010F18BF09F1010950F8081B44F82910F7
:103F00004FEA890259681346234409F102095960AE
:103F10000346E8E753F8042B44F8292009F1010986
:103F2000E1E753F8040B42F8040F81E72B881D44A6
:103F30002B7C7C3B032B8AD8DFE803F01B130A029F
:103F4000114B21461B6840469847359B18607EE719
:103F50000E4B21461B6840469847359BC3E900013C
:103F600075E70B4B21461B6840469847359B186008
:103F70006DE7084B21461B6840469847359A10600C
:103F8000516064E78406002090060020940600201B
:103F9000880600208C0600202DE9F04FF9B00DF1C5
:103FA000E0089DF80C320193934605464FF4807269
:103FB0008A46404600210DF13009829E15F070FDC1
:103FC00040220021484615F06BFD1422002102A872
:103FD00015F066FD1422002107A815F061FDBBF85D
:103FE000000010280FD92A4600010021FFF7A4FD88
:103FF000044648B969492846FFF78AFD0025284646
:1040000079B0BDE8F08F44466FF00E0704F110015F
:104010000BF10F003246A7EB0B07BBF800E007EBF4
:10402000000CF44516D3BBF80200042851D92A46E7
:1040300000010021FFF780FD074600284AD15749BB
:104040002846FFF765FD44453FD100253846FFF778
:1040500061FAD4E710F801CFACF17C0CBCF1030F8E
:1040600027D8DFE80CF0231A0C024FF0000C01F8FF
:1040700010CC52F8043B41F8083C1031CDE74FF02A
:10408000010C01F810CC94465CF8083B41F8083C60
:10409000526841F8042C6246EFE74FF0020C01F839
:1040A00010CC52F804CB41F808CCE6E74FF0030CF3
:1040B000E7E73B492846FFF72BFD44459ED0002506
:1040C0004F462046FFF726FA35E02046FFF722FA52
:1040D000BBE74F46BBF8002004920292019B039479
:1040E00000220992BBF802200897079233BB07A968
:1040F00002A8D047824640B303685B681BB3002127
:1041000068221EA81D9115F0CBFCDAF80020136878
:1041100052686B2B4FF06C0128BF6B231DA811F068
:1041200042FA1DA92846FFF7F3FC504611F056FD50
:1041300000254445C5D14F4588D160E7849807AA3A
:1041400002A9D047D6E71749ECE7BBF800200F32A9
:104150005A443946BBF80200824501D30125E8E7FD
:1041600012F8010F7C38032812D8DFE800F00902AA
:104170000902886846F8040B0AF1010A1031E9E7E0
:10418000B44688684CF8080BC86870606646F3E768
:1041900005492846FFF7BCFCCAE700BFCEBC0108B2
:1041A000D4BE0108EBBE010813BF0108F0B5A7B0EB
:1041B000CDE902230E6801932C9B0F7907930C46DF
:1041C0002D9B06930021CDE90411CDE90811054688
:1041D0000A912EB91849FFF79BFC002027B0F0BDCB
:1041E00007BB06A901A8B047044610B303685B6883
:1041F000EBB1002168220CA80B9115F051FC22684C
:10420000136852686B2B4FF06C0128BF6B230BA80F
:1042100011F0C9F90BA92846FFF77AFC204611F0E6
:10422000DDFCDAE7A06806AA01A9B047DCE703498C
:10423000F1E70120D2E700BF2BBF0108EBBE010868
:104240000022024B11460120FEF706BC53BF0108B5
:1042500007B5036901935BB101AA934208D911F034
:1042600032FD0449FFF754FC002003B05DF804FB65
:104270000120FAE75CC001082DE9F74F9DF83040B6
:104280009DF834B09DF8387051F8045C82460E46B3
:1042900091469846C4B929462846FDF753F838B1E7
:1042A0003749504612F039FF204603B0BDE8F08F81
:1042B00049462846FDF728F820B941462846FDF72B
:1042C0002DF808B12F49ECE7BBF1000F27D0002FE4
:1042D0002946284615BF4FF0004400246FF0004ADD
:1042E0004FF0FF3AFDF72EF8A8B949462846FDF7EA
:1042F0000BF848B941462846FDF710F868B928463A
:1043000037B1FDF735F8044646F8044C0124CBE7F5
:10431000FDF754F8F7E70024F6E75446F4E7EFB961
:104320004FF0FF3B3C46BA465B4629462846019380
:10433000FDF708F8E8B949462846FCF7E5FF50B90B
:1043400041462846FCF7EAFFB0B9284677B1FDF7A9
:1043500022F904468A4646E9014AD7E75C464FF00F
:10436000004A4FF0FF3B6FF00043DEE7FDF7B2F885
:10437000EFE70024A246EEE7DDF804A05C46EAE79A
:10438000A6C001087EC001082DE9F74F0546A1F13E
:104390000800CDE90023884612F0C3FF9DF838A03D
:1043A0009DF83C409DF8409006460F46BAF1000F3C
:1043B0001CD102460B46FCF743FC38B14249284663
:1043C00012F0ABFE504603B0BDE8F08FDDE90023EC
:1043D00030463946FCF716FC30B9DDE90C2330468F
:1043E0003946FCF719FC08B13849E8E794B3B9F14C
:1043F000000F32463B463046394615BF4FF0004469
:1044000000246FF000454FF0FF35FCF719FCE8B9C8
:10441000DDE9002330463946FCF7F4FB70B9DDE9ED
:104420000C2330463946FCF7F7FB88B9304639464D
:10443000B9F1000F07D0FCF719FC044648F8084C06
:104440004FF0010ABEE7FCF739FCF6E70024F5E778
:104450002C46F3E7B9F1000F25D14FF0FF3B4C4656
:104460004D46DA4632463B4630463946FCF7E8FBD5
:1044700018BBDDE9002330463946FCF7C3FB78B9A9
:10448000DDE90C2330463946FCF7C6FBC0B930469F
:104490003946B9F1000F0DD0FDF790F804460D46EE
:1044A00048E90245CCE74FF000454FF0FF3B6FF085
:1044B000004AD7E7FDF72EF8F0E700242546EFE79E
:1044C0005C465546ECE700BFA6C001087EC0010867
:1044D00010B50346D0E90A40241AB4EB410F04D3C7
:1044E0000144D96208B1026010BD9868024912F017
:1044F00014FE0020F8E700BF88C101082DE9F0474D
:104500008146A4B00846D2F81880B2F806A00E463C
:1045100017461D46FFF79CFE002835D0BAF1020F62
:1045200038BF4FF0020A0AF1090A4FEA8A0A2A46FE
:1045300051463046FFF7CCFF044628B3002304EB76
:104540000A014760836061617460D9F83031374A8D
:104550009B68FB1A9B10534398F819202430B2B97A
:10456000D9F8F82052F8231000293AD1D8F80430AD
:1045700000938021D8F800302D4A04A80FF07EFF68
:1045800004A9484612F0C9FD24B0BDE8F087D9F867
:104590002021002AEAD00C214B4302EB030CD15816
:1045A0000029E3D0DCF8083002939CF80430CDE910
:1045B00000034846FB88D8F80820FFF7EDFC0028E8
:1045C000E2D0636A0493A36A05933B89012B22D14D
:1045D0006B69049A1A606B6904336B61F4627560ED
:1045E000D2E7D8E904CED8F80820B7F8069098F8B2
:1045F000188004ABCDE90293CDE900E06346304674
:10460000B8F1000F04D1FFF7D9FB0028BCD0DCE7DC
:1046100012F0C1FDF9E7022BE0D16B69049A1A6030
:104620006B69059A5A606B690833D6E7B76DDBB6DC
:1046300020C301082DE9F04F99B082460B919346B3
:104640000E9311F08CFB8146D8B183690793C3693F
:104650000893DAF8E830A0491B6D1193DAF830318D
:104660005B681093DAF818300F93CF238DF84F3032
:10467000002306931D46099314AC0A9341F00101EF
:104680000847CDE90700E4E79449504612F045FD9C
:1046900002F0E7BA14F8012B914B53F82210EDE722
:1046A00094F900302078002B25DB621C119B53F815
:1046B00020309988D8880B9E182402F03F0363436A
:1046C00044330B9C1C44F358934225D1A3681593A3
:1046D000069BD8601A600698159B4360A5EB810184
:1046E000034614468160103314F8012B06937C4B6B
:1046F00053F82210C2E70023202216A92046169361
:1047000012F031FE169A2244D0E72246002112F818
:10471000010B12F088FECEE7E36893420CBF636999
:104720000023D4E794F900302078002B13DB013408
:10473000119B53F820209288069BC3E90044DA605D
:10474000A5EB82029A60103314F8012B0693644B98
:1047500053F8221092E700232046202216A9169330
:1047600012F001FE169B1C44E2E701340022E3E74D
:1047700094F900302078002B2ADB0134119B53F888
:1047800020309E88DF880B99182204F03F035343A2
:1047900044330B9A1A44CB58A3422AD1536814933A
:1047A0009368159355F8043D002B3BD0069B069A61
:1047B0001C60DF60159B53601346A5EB8606103323
:1047C0009660069314F8012B454B53F8221055E7D9
:1047D00000232046202216A9169312F0C4FD169B32
:1047E0001C44CBE714F8010B12F01DFE002607460F
:1047F000C9E7D368A34203D1136914935369D0E77F
:1048000015AB0B99029314AB0193022300930B9801
:104810004FF0FF332246443106F008FF0028C1D193
:10482000304932E7149B13B9159C0134CAE7069B43
:10483000069A1C60DF60159B53601346A5EB860645
:104840001033149C96600693EFE7069B53F80C4CCC
:10485000234B14F8012B53F822100FE70A9B069AFA
:104860009B6910339A4208D9A2F11003069314F8F9
:10487000012B1B4B53F8221000E7BBF808306FF0F8
:10488000030253430022BBF8081091421AD8DDE915
:104890000A23DA620E9A5A609468002C02F0E781CB
:1048A000136A0992D2F804B05569069314F8012BE3
:1048B0000B4B53F82210099B0A9353F8242B0E92AA
:1048C0000993DBE60E990E9C4969081D6061E85862
:1048D000086001320433D6E70873000872C001088B
:1048E00090A9010851C3010894F900302078002BE9
:1048F00006DA0023202216A92046169312F033FD73
:10490000069BA3EB001353E9034053F8042C0693D2
:10491000960012B1A91B12F078FD851994B915AB58
:10492000029314ABCDE90043069A0B9952F8102C70
:104930000B984FF0FF33443106F078FE00283FF427
:104940006FAF159C14F8012BAF4B53F8221095E66E
:1049500094F900302078002B0BDB631C55F8042DF4
:10496000002ACDD11C46A84B14F8012B53F8221075
:1049700084E60023202216A92046169312F0F3FCA9
:10498000169B2344EAE794F900302078002B08DBDB
:10499000631C55F8042C904228BF1046043D185C57
:1049A000AEE70023202216A92046169312F0DBFC66
:1049B000169B2344EDE7DAF8E830D3F8C80010F08E
:1049C000B9FE55F8047D064604F1FF382EB914F8F7
:1049D000012B8D4B53F8221050E6304610F0ADFEFF
:1049E0007368434507D1B368BB4228BF3B4606EB1B
:1049F0008300C06884E70646E8E7BBF808306FF03C
:104A0000030253430022BBF8081091427FF63FAFE8
:104A10000E990E9C4969081D6061E85808600132D2
:104A20000433F0E794F900302078002B19DB0134CF
:104A3000DAF830319B681C2202FB003B2E46BBF8A3
:104A400006203AB10B9BD86AA6EB82063146243089
:104A500012F0DBFC0A9B069A5E619C601A6202F00F
:104A60005ABC00232046202216A9169312F07BFC84
:104A7000169B1C44DCE794F900302078002B14DBF3
:104A8000631C5C1CDAF82030119A196852F8202057
:104A900055F8043C08699842A5F104060FD85B4913
:104AA000504612F03AFB02F0DDB80023202216A98E
:104AB0002046169312F057FC169B2344E1E7063379
:104AC00051F82330591C01D15149E9E7DAF8301186
:104AD0000869984201D84F49E2E71C20434388689F
:104AE00000EB030BC35CDBF8181023B18B68934217
:104AF000A5D04949D4E70B68F9E714F8012B424BDC
:104B0000043D53F82210B9E514F8012B3E4B083D43
:104B100053F82210B2E555F8042CA5F108031AB990
:104B200055F8082C45F80C2C14F8011B364A1D4684
:104B300052F82110A2E555F8042CA5F10C033AB95E
:104B400055F80C2C45F8142C55F8082C45F8102C69
:104B500014F8011B2C4A1D4652F821108EE594F9D9
:104B60000030BBF802602078002B14DB0134DBF846
:104B70000C30B04233F8102032BFDBF81030DBF8D5
:104B80001430801B1B5C7C3B032B00F2E480DFE8CD
:104B900003F0170C170C00232046202216A91693A9
:104BA00012F0E1FB169B1C44E1E7099B53F822300D
:104BB00045F8043B14F8012B134B53F822105DE524
:104BC000099B03EB820012F0A9FBC5E9000108353F
:104BD000F0E794F900302078002B0FDA099B00F001
:104BE0007F0003EB800012F099FBC5E90001083556
:104BF0006278054B023453F822103FE5099B53F8C5
:104C0000203045F8043BF3E790A90108F7C00108FC
:104C100009C101086BC30108C4C0010894F9003040
:104C2000BBF802602078002B14DB0134DBF80C3079
:104C3000B04233F8102032BFDBF81030DBF814300C
:104C4000801B1B5C7C3B032B00F28580DFE803F0BC
:104C5000190C190C00232046202216A9169312F0D5
:104C600082FB169B1C44E1E7099855F8041C40F8A8
:104C700022102B1F14F8011BA24A1D4652F82110C6
:104C8000FCE4099B03EB8206A5F10803184612F029
:104C900045FB099D45F822007160EBE794F900207F
:104CA0002378002A14DA099A03F07F0302EB8306C3
:104CB000A5F10802104612F031FB099D45F82300CA
:104CC000716061788F4B154653F821100234D5E49A
:104CD000099855F8041C40F823102A1FF1E794F9AD
:104CE0000030BBF802602078002B13DB0134DBF8C6
:104CF0000C30B04233F8103032BFDBF81020DBF854
:104D00001420801B125C7C3A032A24D8DFE802F0CE
:104D1000170C170C00232046202216A9169312F018
:104D200022FB169B1C44E2E7099955F8042C41F834
:104D3000232014F8012B734B53F822109EE4099A98
:104D4000A5F1080012F0EAFA02EB8302099E46F888
:104D500023005160EDE76C4997E494F90020237833
:104D6000002A12DA099AA5F1080012F0D7FA03F026
:104D70007F03099E02EB830246F8230051606278AC
:104D8000604B023453F8221078E4099955F8042C4A
:104D900041F82320F3E794F900302078002B10DB52
:104DA000631C1099182202FB00100F9942688A5860
:104DB00045F8042B1C46534B14F8012B53F82210D2
:104DC0005CE40023202216A92046169312F0CBFAA9
:104DD000169B2344E5E794F900302078002B12DB82
:104DE0000134109B182202FB00300F9B40681844CE
:104DF00012F094FAC5E90001424B14F8012B083572
:104E000053F822103AE400232046202216A91693D4
:104E100012F0A9FA169B1C44E3E794F900302078BD
:104E2000002B10DB631C109C55F8041D182202FB9C
:104E300000401C4642680F98324B815014F8012BF9
:104E400053F822101AE40023202216A920461693B4
:104E500012F089FA169B2344E5E794F90030207894
:104E6000002B0DDB0134109A0B99182303FB002053
:104E7000896955F8043C42688B420BD8234904E405
:104E800000232046202216A9169312F06CFA169BD6
:104E90001C44E8E70B99C9698B4202D91C49FFF70A
:104EA000F4BB0F998B50174B14F8012B043D53F8AA
:104EB0002210FFF7E3BB94F900302078002B16DBBB
:104EC000631C1099182202FB0010083D42680F99DC
:104ED00028468C1812F022FA0F9EB05061601C46D2
:104EE000084B14F8012B53F82210FFF7C7BB00231F
:104EF000202216A92046169312F035FA169B234459
:104F0000DFE700BF90A901087CC3010830C1010898
:104F10004EC1010894F90030002B27DB013494F9CD
:104F200000302078002B2BDB013455F8042C079F30
:104F3000131D2CBF012100211B1841F100019F42CC
:104F4000089B73EB0101A5F10406C2F0AA81D9F810
:104F500020301044184412F0E9F945F8040C14F814
:104F6000012BB74B53F82210FFF788BB00232046D4
:104F7000202216A9169312F0F6F9169E3444CEE7B5
:104F800000232046202216A9169312F0ECF9169B56
:104F90001C44CAE794F90030002B2CDB013494F94F
:104FA00000302078002B30DB013455F8042C079FAB
:104FB00012F108032CBF012100211B1841F100014F
:104FC0009F42089B73EB0101A5F10406C2F06981C1
:104FD000D9F82030104419184F0720D11A584B68BF
:104FE00045F8042C45F8043B954B14F8012B53F875
:104FF0002210FFF743BB00232046202216A9169358
:1050000012F0B1F9169E3444C9E70023204620224D
:1050100016A9169312F0A7F9169B1C44C5E78E0734
:1050200006D11B5816934B681793DDE91623D7E773
:10503000CA070CD41B5AADF858304B88ADF85A301B
:105040008B88ADF85C30CB88ADF85E30EDE7185852
:10505000496816AA03C2E8E794F90030002B25DB63
:10506000013494F900302078002B29DB013455F805
:10507000042C079F531C2CBF012100211B1841F158
:1050800000019F42089B73EB0101A5F10406C2F0E9
:105090000881D9F8203003449B5645F8043C14F8A5
:1050A000012B674B53F82210FFF7E8BA0023204684
:1050B000202216A9169312F056F9169E3444D0E712
:1050C00000232046202216A9169312F04CF9169BB5
:1050D0001C44CCE794F90030002B25DB013494F913
:1050E00000302078002B29DB013455F8042C079F71
:1050F000531C2CBF012100211B1841F100019F42CC
:10510000089B73EB0101A5F10406C2F0CA80D9F82F
:10511000203003449B5C45F8043C14F8012B484BB9
:1051200053F82210FFF7AABA00232046202216A91E
:10513000169312F018F9169E3444D0E70023204647
:10514000202216A9169312F00EF9169B1C44CCE7E8
:1051500094F90030002B27DB013494F900302078DB
:10516000002B2BDB013455F8042C079F931C2CBF1C
:10517000012100211B1841F100019F42089B73EBA4
:105180000101A5F10406C2F08C80D9F8203010444A
:10519000184412F02CF945F8040C14F8012B284B94
:1051A00053F82210FFF76ABA00232046202216A9DE
:1051B000169312F0D8F8169E3444CEE7002320460A
:1051C000202216A9169312F0CEF8169B1C44CAE7AB
:1051D00094F90030002B28DB013494F9003020785A
:1051E000002B2FDB013455F8042C079F931C2CBF98
:1051F000012100211B1841F100019F42089B73EB24
:105200000101A5F10406C2F04C80D9F82030104409
:10521000184412F0ECF880B245F8040C14F8012B95
:10522000074B53F82210FFF729BA0023204620220B
:1052300016A9169312F097F8169E3444CDE700BFD6
:1052400090A9010800232046202216A9169312F0E7
:105250008AF8169B1C44C6E794F90030002B28DB23
:10526000013494F900302078002B2CDB013455F800
:10527000042C079F531C2CBF012100211B1841F156
:1052800000019F42089B73EB0101A5F10406C2F0E7
:105290000880D9F8203003449B5645F8043CDB17BE
:1052A00045F8043BB54B14F8012B53F82210FFF7D7
:1052B000E5B900232046202216A9169312F053F8D0
:1052C000169E3444CDE700232046202216A91693CB
:1052D00012F049F8169B1C44C9E794F90030002BE2
:1052E00029DB013494F900302078002B2DDB0134C8
:1052F00055F8042CDDF81CC0531C4FF0000747F193
:1053000000011B1841F100019C45089B73EB010152
:10531000A5F10406C1F0C587D9F8203003449B5C91
:1053200045F8043C45F8047B944B14F8012B53F8E2
:105330002210FFF7A3B900232046202216A91693B6
:1053400012F011F8169E3444CCE7002320462022A8
:1053500016A9169312F007F8169B1C44C8E794F997
:105360000030002B2ADB013494F900302078002B28
:105370002EDB013455F8042C079F931C2CBF012110
:1053800000211B1841F100019F42089B73EB0101B2
:10539000A5F10406C1F08587D9F8203010441844DF
:1053A00012F025F845F8040CC01745F8040B734BB0
:1053B00014F8012B53F82210FFF760B900232046A0
:1053C000202216A9169311F0CEFF169E3444CBE787
:1053D00000232046202216A9169311F0C4FF169B25
:1053E0001C44C7E794F90030002B2CDB013494F9FE
:1053F00000302078002B30DB013455F8042CDDF828
:105400001CC0931C4FF0000141F100071B1847F12D
:1054100000079C45089B73EB0707A5F10406C1F044
:105420004087D9F820301044184411F0E0FF80B2D2
:1054300045F8040C45F8041B504B14F8012B53F8A5
:105440002210FFF71BB900232046202216A916932D
:1054500011F089FF169E3444C9E70023204620221C
:1054600016A9169311F07FFF169B1C44C5E794F90B
:105470000030002B2ADB013494F900302078002B17
:105480002EDB013455F8042C079F131D2CBF01217E
:1054900000211B1841F100019F42089B73EB0101A1
:1054A000A5F10406C1F0FD86D9F820301044184457
:1054B00011F03CFF45F8040CC01745F8040B2F4BC6
:1054C00014F8012B53F82210FFF7D8B80023204618
:1054D000202216A9169311F046FF169E3444CBE7FE
:1054E00000232046202216A9169311F03CFF169B9C
:1054F0001C44C7E794F90030002B2BDB013494F9EE
:1055000000302078002B2FDB013455F8042CDDF817
:105510001CC0131D4FF0000141F100071B1847F19B
:1055200000079C45089B73EB0707A5F10406C1F033
:10553000B886D9F820301044184411F0F7FE45F829
:10554000040C45F8041B0D4B14F8012B53F82210E2
:10555000FFF794B800232046202216A9169311F0D5
:1055600002FF169E3444CAE700232046202216A9D3
:10557000169311F0F8FE169B1C44C6E790A901088B
:1055800094F90030002B29DB013494F900302078A5
:10559000002B2DDB013455F8082C079F131D2CBF61
:1055A000012100211B1841F100019F42089B73EB70
:1055B0000101A5F10806C1F074861044D9F8202035
:1055C00055F8043C11188F071CD1135014F8012B07
:1055D000C24B354653F82210FFF750B8002320463F
:1055E000202216A9169311F0BEFE169E3444CCE775
:1055F00000232046202216A9169311F0B4FE169B14
:105600001C44C8E7CD0704D41352C3F30F434B80A7
:10561000DCE71354C3F307224A70C3F30742C3F312
:1056200007638A70CB70D1E794F90030002B2CDB34
:10563000013494F900202378002A30DB1846013425
:1056400055F80C2C079F12F108032CBF01210021F3
:105650001B1841F100019F42089B73EB0101A5F16A
:105660000C06C1F01E868318A5F1080011F056FE45
:10567000D9F82020D718D050796014F8012B974B17
:10568000354653F82210FEF7F9BF002320462022AA
:1056900016A9169311F067FE169E3444C9E700233D
:1056A0002046202216A9169311F05DFE169B1C447D
:1056B000C6E794F9003014F8017C002B29DB013493
:1056C00094F900302078002B2DDB01343A2F55F867
:1056D000041C55F8082CA5F108064FF000032CD146
:1056E000551C079F43F100032D1843F10003AF42FF
:1056F000089D75EB0303C1F0D485D9F8203003442D
:10570000995414F8012B754B354653F82210FEF7C7
:10571000B5BF00232046202216A9169311F023FEC0
:10572000169E3444CCE700232046202216A9169367
:1057300011F019FE169B1C44C8E7951C079F43F106
:1057400000032D1843F10003AF42089D75EB0303DE
:10575000C1F0A785D9F8203010441A181954C1F3A4
:1057600007215170CDE794F9003014F8017C002B2B
:105770002CDB013494F900202378002A30DB01343B
:10578000A5F1080011F0CAFD3C2F55F80C1CA5F13D
:105790000C064FF000022ED14D1C079F42F1000273
:1057A000ED1842F10002AF42089D75EB0202C1F014
:1057B0007885D9F820201A44505414F8012B474B0F
:1057C000354653F82210FEF759BFCCE70023204698
:1057D000202216A9169311F0C6FD169E3444C9E77F
:1057E00000232022204616A9169311F0BCFD169A1C
:1057F00003461444C4E73D2F15D18D1C079F42F189
:105800000002ED1842F10002AF42089D75EB020262
:10581000C1F047851944D9F820305A185854C0F3BC
:1058200007205070C9E70D1D079F42F10002ED18D7
:1058300042F10002AF42089D75EB0202C1F03185D2
:10584000D9F820200B44D1188F0701D1D050B4E7EC
:10585000CD0704D4D052C0F30F404880ADE7D054F8
:10586000C0F307234B70C0F30743C0F307608B708E
:10587000C870A2E794F90030002B0CDB631CD9F848
:10588000102045F8042B1C46144B14F8012B53F838
:105890002210FEF7F3BE0023202216A920461693FD
:1058A00011F061FD169B2344E9E794F9003022785A
:1058B000002B15DB013455F8041CD9F81060504654
:1058C00010F0B1FAB8B94FF0FF3345F8043C14F8C2
:1058D000012B024B53F82210FEF7D0BE90A901080D
:1058E00000232022204616A9169311F03CFD169B9A
:1058F00002461C44DFE745F8046CD9F818300793DA
:10590000D9F81C300893E2E794F900302078002B96
:105910000EDB430648BF60F07F00631C1C4645F861
:10592000040BCC4B14F8012B53F82210FEF7A6BE43
:10593000002316932022012316A9204611F013FDFF
:10594000169B2344EAE794F900302078002B12DB01
:1059500010F040011CBF60F07F004FF0FF31631C6E
:10596000C5E900011C46BB4B14F8012B083553F860
:105970002210FEF783BE002316934022012316A9AE
:10598000204611F0F0FC169B2344E9E72A1D211D57
:10599000013D234613F8010B05F8010F8B42F9D1A5
:1059A0002179AC4B154653F821100534FEF766BE3D
:1059B00005F1080204F10801013D234613F8010B2B
:1059C00005F8010F8B42F9D1217AA24B154653F805
:1059D00021100934FEF752BE55F8043CB3FA83F3A4
:1059E0005B0945F8043C14F8012B9A4B53F822103C
:1059F000FEF744BE55E902239F1A7B427B4145F8DE
:105A0000083C14F8012B934B043D53F82210FEF789
:105A100035BE55E902239B1A18BF012345F8083CFF
:105A200014F8012B8B4B043D53F82210FEF726BED1
:105A300055E902239342D4BF0023012345F8083CD3
:105A400014F8012B834B043D53F82210FEF716BEC9
:105A500055E90223934294BF0023012345F8083CF3
:105A600014F8012B7B4B043D53F82210FEF706BEC1
:105A700055E902239342ACBF0023012345F8083CBB
:105A800014F8012B734B043D53F82210FEF7F6BDBA
:105A900055E9022393422CBF0023012345F8083C1B
:105AA00014F8012B6B4B043D53F82210FEF7E6BDB2
:105AB00055E902239342B4BF0023012345F8083C73
:105AC00014F8012B634B043D53F82210FEF7D6BDAA
:105AD00055E90223934234BF0023012345F8083CD3
