:020000040800F2
:10000000C0C10420951A0108C98C0108811A010891
:10001000811A0108811A0108811A010800000000F4
:10002000000000000000000000000000651B010847
:10003000811A010800000000051B0108452C010879
:10004000DD1C0108DD1C0108DD1C0108DD1C0108A8
:10005000DD1C0108DD1C0108DD1C0108DD1C010898
:10006000DD1C0108DD1C0108DD1C0108DD1C010888
:10007000DD1C0108DD1C0108DD1C0108DD1C010878
:10008000DD1C0108DD1C0108DD1C0108DD1C010868
:10009000DD1C0108DD1C0108DD1C0108DD1C010858
:1000A000DD1C0108DD1C0108DD1C0108DD1C010848
:1000B000DD1C0108DD1C0108DD1C0108DD1C010838
:1000C000DD1C0108DD1C0108DD1C0108DD1C010828
:1000D000DD1C0108DD1C0108DD1C0108DD1C010818
:1000E000DD1C0108DD1C0108DD1C0108DD1C010808
:1000F000DD1C0108DD1C0108DD1C0108DD1C0108F8
:10010000DD1C0108DD1C0108DD1C0108DD1C0108E7
:10011000DD1C0108DD1C0108DD1C0108DD1C0108D7
:10012000DD1C0108DD1C0108DD1C0108DD1C0108C7
:10013000DD1C0108DD1C0108DD1C0108DD1C0108B7
:10014000DD1C0108DD1C0108DD1C0108DD1C0108A7
:10015000DD1C0108DD1C0108DD1C0108DD1C010897
:10016000DD1C0108DD1C0108DD1C0108DD1C010887
:10017000DD1C0108DD1C0108DD1C0108DD1C010877
:10018000DD1C0108DD1C0108DD1C0108DD1C010867
:10019000DD1C0108DD1C0108DD1C0108DD1C010857
:1001A000DD1C0108DD1C0108DD1C0108DD1C010847
:1001B000DD1C0108DD1C0108DD1C0108DD1C010837
:0801C000DD1C0108DD1C010833
:1001D00001F0FF01102A2BDB10F0070F08D010F8F8
:1001E000013B013A8B422DD010F0070F42B3F6D1FC
:1001F000F0B441EA012141EA014122F007047FF015
:1002000000070023F0E80256083C85EA010586EA6B
:10021000010685FA47F5A3FA87F586FA47F6A5FAA7
:1002200087F68EB9EED1F0BC01F0FF0102F00702B3
:1002300032B110F8013B013A83EA010313B1F8D15E
:100240000020704701387047002D06BF354603383F
:10025000073815F0010F07D1013015F4807F02BF78
:10026000013015F4C03F0130F0BC0138704700BFC9
:10027000F0B400B581B084460C1C151C012D25DBA3
:10028000002620680434012D1ED021680434022D7C
:100290001AD022680434032D16D023680434042DA8
:1002A00012D0043DAE000727F619BE4304366F4650
:1002B000BF1BBD469646002D05D0226804343A6027
:1002C0000437013DF7E77246E047B54401B008BC8A
:1002D000F0BC9E46704700BF002902D0B0FBF1F091
:1002E000704708B14FF0FF3000F03AB80029F8D05D
:1002F0000246B0FBF1F000FB11217047002902D04B
:1003000090FBF1F070470028C8BF6FF00040B8BF05
:100310004FF0004000F024B80029F4D0024690FBD2
:10032000F1F000FB11217047002904D0B0FBF1F27D
:1003300001FB1200704708B14FF0FF3000F010B819
:10034000002904D090FBF1F201FB12007047002855
:10035000C8BF6FF00040B8BF4FF0004000F000B8D9
:10036000704700BFD0400B00D1409C46203AD3409C
:10037000184352426346934018437047914003002C
:1003800090409C46203A9340194352426346D340E2
:100390001943704781F0004102E000BF83F0004341
:1003A00030B54FEA41044FEA430594EA050F08BF10
:1003B00090EA020F1FBF54EA000C55EA020C7FEAD4
:1003C000645C7FEA655C00F0E2804FEA5454D4EB51
:1003D0005555B8BF6D420CDD2C4480EA020281EA1B
:1003E000030382EA000083EA010180EA020281EA53
:1003F0000303362D88BF30BD11F0004F4FEA0131A5
:100400004FF4801C4CEA113102D0404261EB4101B3
:1004100013F0004F4FEA03334CEA133302D0524239
:1004200063EB430394EA050F00F0A780A4F10104F5
:10043000D5F1200E0DDB02FA0EFC22FA05F280182F
:1004400041F1000103FA0EF2801843FA05F3594115
:100450000EE0A5F120050EF1200E012A03FA0EFC94
:1004600028BF4CF0020C43FA05F3C01851EBE371BE
:1004700001F0004507D54FF0000EDCF1000C7EEBDB
:1004800000006EEB0101B1F5801F1BD3B1F5001F19
:100490000CD349085FEA30004FEA3C0C04F1010438
:1004A0004FEA445212F5800F80F09A80BCF1004F61
:1004B00008BF5FEA500C50F1000041EB045141EAE3
:1004C000050130BD5FEA4C0C404141EB0101013CAC
:1004D00028BFB1F5801FE9D291F0000F04BF01469B
:1004E0000020B1FA81F308BF2033A3F10B03B3F16D
:1004F00020020CDA0C3208DD02F1140CC2F10C02FD
:1005000001FA0CF021FA02F10CE002F11402D8BF5A
:10051000C2F1200C01FA02F120FA0CFCDCBF41EA26
:100520000C019040E41AA2BF01EB0451294330BDF5
:100530006FEA04041F3C1CDA0C340EDC04F11404D2
:10054000C4F1200220FA04F001FA02F340EA0300A9
:1005500021FA04F345EA030130BDC4F10C04C4F1EF
:10056000200220FA02F001FA04F340EA03002946CF
:1005700030BD21FA04F0294630BD94F0000F83F419
:10058000801306BF81F480110134013D4EE77FEAFC
:10059000645C18BF7FEA655C29D094EA050F08BF48
:1005A00090EA020F05D054EA000C04BF1946104629
:1005B00030BD91EA030F1EBF0021002030BD5FEA6D
:1005C000545C05D14000494128BF41F0004130BD95
:1005D00014F580043CBF01F5801130BD01F00045E9
:1005E00045F0FE4141F470014FF0000030BD7FEA5C
:1005F000645C1ABF194610467FEA655C1CBF0B4657
:10060000024650EA013406BF52EA033591EA030F6D
:1006100041F4002130BD00BF90F0000F04BF002165
:10062000704730B54FF4806404F132044FF0000598
:100630004FF0000150E700BF90F0000F04BF002111
:10064000704730B54FF4806404F1320410F0004577
:1006500048BF40424FF000013EE700BF42004FEA72
:10066000E2014FEA31014FEA02701FBF12F07F43EF
:1006700093F07F4F81F06051704732F07F4208BFA6
:10068000704793F07F4F04BF41F40021704730B5AD
:100690004FF4607401F0004521F000411CE700BFF9
:1006A00050EA010208BF704730B54FF000050AE07C
:1006B00050EA010208BF704730B511F0004502D57D
:1006C000404261EB41014FF4806404F132045FEA7F
:1006D000915C3FF4D8AE4FF003025FEADC0C18BF28
:1006E00003325FEADC0C18BF033202EBDC02C2F11A
:1006F000200300FA03FC20FA02F001FA03FE40EAAC
:100700000E0021FA02F11444BDE600BF70B54FF0AF
:10071000FF0C4CF4E06C1CEA11541DBF1CEA13558D
:1007200094EA0C0F95EA0C0F00F0DEF82C4481EAF5
:10073000030621EA4C5123EA4C5350EA013518BF15
:1007400052EA033541F4801143F4801338D0A0FB02
:1007500002CE4FF00005E1FB02E506F00042E0FBAF
:1007600003E54FF00006E1FB03569CF0000F18BFB5
:100770004EF0010EA4F1FF04B6F5007F64F540745D
:1007800004D25FEA4E0E6D4146EB060642EAC621F0
:1007900041EA55514FEAC52040EA5E504FEACE2E5D
:1007A000B4F1FD0C88BFBCF5E06F1ED8BEF1004F60
:1007B00008BF5FEA500E50F1000041EB045170BDDC
:1007C00006F0004646EA010140EA020081EA030120
:1007D000B4EB5C04C2BFD4EB0C0541EA045170BD1C
:1007E00041F480114FF0000E013C00F3AB8014F196
:1007F000360FDEBF002001F0004170BDC4F10004DF
:10080000203C35DA0C341BDC04F11404C4F120055F
:1008100000FA05F320FA04F001FA05F240EA0200BA
:1008200001F0004221F0004110EBD37021FA04F6F0
:1008300042EB06015EEA430E08BF20EAD37070BDAA
:10084000C4F10C04C4F1200500FA04F320FA05F009
:1008500001FA04F240EA020001F0004110EBD3700B
:1008600041F100015EEA430E08BF20EAD37070BD7B
:10087000C4F1200500FA05F24EEA020E20FA04F354
:1008800001FA05F243EA020321FA04F001F0004103
:1008900021FA04F220EA020000EBD3705EEA430E74
:1008A00008BF20EAD37070BD94F0000F0FD101F0A3
:1008B0000046400041EB010111F4801F08BF013CDC
:1008C000F7D041EA060195F0000F18BF704703F01A
:1008D0000046520043EB030313F4801F08BF013DA1
:1008E000F7D043EA0603704794EA0C0F0CEA13555D
:1008F00018BF95EA0C0F0CD050EA410618BF52EA17
:100900004306D1D181EA030101F000414FF000001C
:1009100070BD50EA410606BF1046194652EA43062A
:1009200019D094EA0C0F02D150EA013613D195EA9E
:100930000C0F05D152EA03361CBF104619460AD1E6
:1009400081EA030101F0004141F0FE4141F47001F0
:100950004FF0000070BD41F0FE4141F4780170BDE0
:1009600070B54FF0FF0C4CF4E06C1CEA11541DBF45
:100970001CEA135594EA0C0F95EA0C0F00F0A7F847
:10098000A4EB050481EA030E52EA03354FEA013174
:1009900000F088804FEA03334FF0805545EA131387
:1009A00043EA12634FEA022245EA111545EA10654F
:1009B0004FEA00260EF000419D4208BF964244F1E6
:1009C000FD0404F5407402D25B084FEA3202B61A05
:1009D00065EB03055B084FEA32024FF480104FF4D9
:1009E000002CB6EB020E75EB030E22BFB61A75464D
:1009F00040EA0C005B084FEA3202B6EB020E75EBE0
:100A0000030E22BFB61A754640EA5C005B084FEA47
:100A10003202B6EB020E75EB030E22BFB61A754614
:100A200040EA9C005B084FEA3202B6EB020E75EB1F
:100A3000030E22BFB61A754640EADC0055EA060EE0
:100A400018D04FEA051545EA16754FEA06164FEA23
:100A5000C30343EA52734FEAC2025FEA1C1CC0D1CF
:100A600011F4801F0BD141EA00014FF000004FF05C
:100A7000004CB6E711F4801F04BF01430020B4F11D
:100A8000FD0C88BFBCF5E06F3FF6AFAEB5EB030CD5
:100A900004BFB6EB020C5FEA500C50F1000041EBD2
:100AA000045170BD0EF0004E4EEA113114EB5C049F
:100AB000C2BFD4EB0C0541EA045170BD41F4801172
:100AC0004FF0000E013C90E645EA060E8DE60CEA7A
:100AD000135594EA0C0F08BF95EA0C0F3FF43BAF97
:100AE00094EA0C0F0AD150EA01347FF434AF95EA4E
:100AF0000C0F7FF425AF104619462CE795EA0C0F32
:100B000006D152EA03353FF4FDAE1046194622E7FE
:100B100050EA410618BF52EA43067FF4C5AE50EAD8
:100B200041047FF40DAF52EA43057FF4EBAE12E7C8
:100B30004FF0FF3C06E000BF4FF0010C02E000BFA9
:100B40004FF0010C4DF804CD4FEA410C7FEA6C5C8C
:100B50004FEA430C18BF7FEA6C5C1BD001B050EA2F
:100B6000410C0CBF52EA430C91EA030F02BF90EA1A
:100B7000020F0020704710F1000F91EA030F58BFD9
:100B8000994208BF90422CBFD8176FEAE37040F03B
:100B9000010070474FEA410C7FEA6C5C02D150EAD9
:100BA000013C07D14FEA430C7FEA6C5CD6D152EA94
:100BB000033CD3D05DF8040B704700BF8446104659
:100BC00062468C461946634600E000BF01B5FFF758
:100BD000B7FF002848BF10F1000F01BD4DF808ED28
:100BE000FFF7F4FF0CBF012000205DF808FB00BFF9
:100BF0004DF808EDFFF7EAFF34BF012000205DF853
:100C000008FB00BF4DF808EDFFF7E0FF94BF01209F
:100C100000205DF808FB00BF4DF808EDFFF7CEFFA0
:100C200094BF012000205DF808FB00BF4DF808EDDF
:100C3000FFF7C4FF34BF012000205DF808FB00BFB0
:100C40004FEA410C7FEA6C5C02D150EA013C0AD1C8
:100C50004FEA430C7FEA6C5C02D152EA033C02D1BA
:100C60004FF0000070474FF0010070474FEA41021B
:100C700012F5001215D211D56FF47873B3EB6252EE
:100C800012D94FEAC12343F0004343EA505311F015
:100C9000004F23FA02F018BF404270474FF00000A7
:100CA000704750EA013005D111F0004008BF6FF0E5
:100CB000004070474FF00000704700BF4A0011D25B
:100CC00012F5001211D20DD56FF47873B3EB6252A6
:100CD0000ED44FEAC12343F0004343EA505323FAB2
:100CE00002F070474FF00000704750EA013002D127
:100CF0004FF0FF3070474FF0000070474FEA41025D
:100D0000B2F1E04324BFB3F5001CDCF1FE5C0DD969
:100D100001F0004C4FEAC0024CEA5070B2F1004FB3
:100D200040EB830008BF20F00100704711F0804FB6
:100D300021D113F13872BCBF01F00040704741F47B
:100D400080114FEA5252C2F11802C2F1200C10FA7F
:100D50000CF320FA02F018BF40F001004FEAC12363
:100D60004FEAD32303FA0CFC40EA0C0023FA02F307
:100D70004FEA4303CCE77FEA625307D150EA0133DD
:100D80001EBF4FF0FE4040F44000704701F00040AD
:100D900040F0FE4040F40000704700BF80F000408B
:100DA00002E000BF81F0004142001FBF5FEA410343
:100DB00092EA030F7FEA226C7FEA236C6AD04FEA43
:100DC0001262D2EB1363C1BFD21841404840414088
:100DD000B8BF5B42192B88BF704710F0004F40F43A
:100DE000000020F07F4018BF404211F0004F41F456
:100DF000000121F07F4118BF494292EA030F3FD022
:100E0000A2F1010241FA03FC10EB0C00C3F1200334
:100E100001FA03F100F0004302D5494260EB4000C3
:100E2000B0F5000F13D3B0F1807F06D340084FEA2E
:100E3000310102F10102FE2A51D2B1F1004F40EB23
:100E4000C25008BF20F0010040EA0300704749008B
:100E500040EB0000013A28BFB0F5000FEDD2B0FA28
:100E600080FCACF1080CB2EB0C0200FA0CF0AABF4B
:100E700000EBC25052421843BCBFD04018437047E9
:100E800092F0000F81F4000106BF80F400000132EF
:100E9000013BB5E74FEA41037FEA226C18BF7FEAC6
:100EA000236C21D092EA030F04D092F0000F08BF08
:100EB0000846704790EA010F1CBF0020704712F0EF
:100EC0007F4F04D1400028BF40F00040704712F12E
:100ED00000723CBF00F50000704700F0004343F093
:100EE000FE4040F4000070477FEA226216BF0846C9
:100EF0007FEA23630146420206BF5FEA412390EA8C
:100F0000010F40F4800070474FF0000304E000BF81
:100F100010F0004348BF40425FEA000C08BF704732
:100F200043F0964301464FF000001CE050EA0102F6
:100F300008BF70474FF000030AE000BF50EA01020B
:100F400008BF704711F0004302D5404261EB4101F8
:100F50005FEA010C02BF84460146002043F0B6431D
:100F600008BFA3F18053A3F50003BCFA8CF2083A42
:100F7000A3EBC25310DB01FA02FC634400FA02FC4B
:100F8000C2F12002BCF1004F20FA02F243EB020052
:100F900008BF20F00100704702F1200201FA02FCB4
:100FA000C2F1200250EA4C0021FA02F243EB0200A7
:100FB00008BF20EADC7070474FF0FF0C1CEAD052EB
:100FC0001EBF1CEAD15392EA0C0F93EA0C0F6FD0AC
:100FD0001A4480EA010C400218BF5FEA41211ED08A
:100FE0004FF0006343EA501043EA5111A0FB013176
:100FF0000CF00040B1F5000F3EBF490041EAD3714B
:101000005B0040EA010062F17F02FD2A1DD8B3F1C6
:10101000004F40EBC25008BF20F00100704790F035
:10102000000F0CF0004C08BF49024CEA502040EA87
:1010300051207F3AC2BFD2F1FF0340EAC25070474D
:1010400040F400004FF00003013A5DDC12F1190F8B
:10105000DCBF00F000407047C2F10002410021FAFD
:1010600002F1C2F1200200FA02FC5FEA310040F115
:10107000000053EA4C0308BF20EADC70704792F08E
:10108000000F00F0004C02BF400010F4000F013AC6
:10109000F9D040EA0C0093F0000F01F0004C02BFC1
:1010A000490011F4000F013BF9D041EA0C018FE730
:1010B0000CEAD15392EA0C0F18BF93EA0C0F0AD036
:1010C00030F0004C18BF31F0004CD8D180EA01005C
:1010D00000F00040704790F0000F17BF90F0004FF5
:1010E000084691F0000F91F0004F14D092EA0C0FD7
:1010F00001D142020FD193EA0C0F03D14B0218BF6A
:10110000084608D180EA010000F0004040F0FE40AF
:1011100040F40000704740F0FE4040F4400070474B
:101120004FF0FF0C1CEAD0521EBF1CEAD15392EACA
:101130000C0F93EA0C0F69D0A2EB030280EA010CBA
:1011400049024FEA402037D04FF0805343EA111153
:1011500043EA10130CF000408B4238BF5B0042F1B1
:101160007D024FF4000C8B4224BF5B1A40EA0C0056
:10117000B3EB510F24BFA3EB510340EA5C00B3EB88
:10118000910F24BFA3EB910340EA9C00B3EBD10F76
:1011900024BFA3EBD10340EADC001B0118BF5FEAC8
:1011A0001C1CE0D1FD2A3FF650AF8B4240EBC250F1
:1011B00008BF20F0010070470CF0004C4CEA5020B2
:1011C0007F32C2BFD2F1FF0340EAC250704740F401
:1011D00000004FF00003013A37E792F0000F00F0F3
:1011E000004C02BF400010F4000F013AF9D040EA71
:1011F0000C0093F0000F01F0004C02BF490011F405
:10120000000F013BF9D041EA0C0195E70CEAD153FC
:1012100092EA0C0F08D142027FF47DAF93EA0C0FE3
:101220007FF470AF084676E793EA0C0F04D14B02C7
:101230003FF44CAF08466EE730F0004C18BF31F079
:10124000004CCAD130F000427FF45CAF31F0004373
:101250007FF43CAF5FE700BF4FF0FF3C06E000BF0C
:101260004FF0010C02E000BF4FF0010C4DF804CD2F
:101270004FEA40024FEA41037FEA226C18BF7FEA3F
:10128000236C11D001B052EA530C18BF90EA010F41
:1012900058BFB2EB030088BFC81738BF6FEAE170D0
:1012A00018BF40F0010070477FEA226C02D15FEA6C
:1012B000402C05D17FEA236CE4D15FEA412CE1D0D8
:1012C0005DF8040B704700BF844608466146FFE79F
:1012D0000FB5FFF7C9FF002848BF10F1000F0FBD81
:1012E0004DF808EDFFF7F4FF0CBF012000205DF87A
:1012F00008FB00BF4DF808EDFFF7EAFF34BF0120FF
:1013000000205DF808FB00BF4DF808EDFFF7E0FF97
:1013100094BF012000205DF808FB00BF4DF808EDE8
:10132000FFF7D2FF94BF012000205DF808FB00BF4B
:101330004DF808EDFFF7C8FF34BF012000205DF82D
:1013400008FB00BF4FEA40024FEA41037FEA226CEC
:1013500002D15FEA402C08D17FEA236C02D15FEA18
:10136000412C02D14FF0000070474FF00100704750
:101370004FEA4002B2F1FE4F0FD34FF09E03B3EBA2
:1013800012620DD94FEA002343F0004310F0004FE2
:1013900023FA02F018BF404270474FF00000704738
:1013A00012F1610F01D1420205D110F0004008BFD7
:1013B0006FF0004070474FF00000704742000ED2BF
:1013C000B2F1FE4F0BD34FF09E03B3EB126209D480
:1013D0004FEA002343F0004323FA02F070474FF036
:1013E0000000704712F1610F01D1420202D14FF0AB
:1013F000FF3070474FF00000704700BFB0FA80F038
:10140000704700BF7BB972B90029BEBF00204FF002
:10141000004106E008BF00281CBF6FF000414FF0FC
:10142000FF30FEF79DBFADF1080C6DE904CE002939
:1014300009DB002B1ADB00F00AFDDDF804E0DDE932
:10144000022304B07047404261EB4101002B1BDBDB
:1014500000F0FDFCDDF804E0DDE9022304B04042C9
:1014600061EB4101524263EB43037047524263EB2D
:10147000430300F0ECFCDDF804E0DDE9022304B0F6
:10148000404261EB41017047524263EB430300F07D
:10149000DEFCDDF804E0DDE9022304B0524263EB38
:1014A0004303704753B94AB9002908BF00281CBF3D
:1014B0004FF0FF314FF0FF30FEF752BFADF1080C97
:1014C0006DE904CE00F0C3FCDDF804E0DDE90223A1
:1014D00004B07047D0B5FFF7C1F80C4B00220646A8
:1014E0000F46FFF713F9FFF7E9FB0446FFF794F8FF
:1014F000074B0022FFF70AF902460B4630463946F1
:10150000FEF74CFFFFF7DAFB2146D0BD0000F03DAF
:101510000000F041D0B50C4B002206460F46FFF705
:10152000F5F8FFF7CBFB0446FFF776F8074B0022F0
:10153000FFF7ECF802460B4630463946FEF72EFF21
:10154000FFF7BCFB2146D0BD0000F03D0000F0419C
:1015500010F8012B11F8013B012A28BF9A42F7D05D
:10156000D01A7047034611F8012B03F8012B002A0B
:10157000F9D17047034613F8012B002AFBD1181A42
:101580000138704730B50446A0FB02054A4303FB0F
:101590000422511930BD10B500210446FFF7AAFE00
:1015A00020B92046BDE81040FFF794BF04F1004089
:1015B000FFF790FF404261EB410110BD38B50022BA
:1015C000002304460D46FFF713FB28B920462946A1
:1015D000BDE83840FFF79EBF204605F10041FFF708
:1015E00099FF404261EB410138BD2DE9F0430746C8
:1015F000081E53DA7F4260EB40004FF0FF35002BAE
:1016000004DA52426FEA050563EB430314463E4693
:1016100084461946002B40F0B4808442B2FA82F22C
:1016200040D94AB1C2F1200300FA02FC27FA03F3C1
:10163000944043EA0C0C9640200C1FFA84FEBCFB3D
:10164000F0F2330C00FB12CC02FB0EF843EA0C4321
:10165000984525D9E31802F1FF3703D2984501D9FF
:10166000971E2344A3EB0803B6B2B3FBF0F200FBD2
:10167000123302FB0EFC46EA0346B4457FD9A61995
:1016800002F1FF3002D2B44500D9901E40EA074073
:1016900015B1404261EB4101BDE8F0830025AEE7A2
:1016A0001746DFE75ABB031B0121200C1FFA84FCFD
:1016B000B3FBF0FE320C00FB1E330EFB0CF842EACB
:1016C0000343984559D9E3180EF1FF3704D29845E2
:1016D00002D9AEF102072344A3EB0803B6B2B3FB71
:1016E000F0F200FB123302FB0CFC46EA0346B44561
:1016F00045D9A41902F1FF30C8D2A445C4E7C2F10C
:10170000200320FA03F79440904026FA03F30343A2
:101710004FEA144E9640B7FBFEF1A0B20EFB1177D4
:101720001A0C01FB00FC42EA0742944521D9A21899
:1017300001F1FF3703D2944501D98F1E2244A2EB59
:101740000C029BB2B2FBFEFC0EFB1C220CFB00F059
:1017500043EA024398420ED9E3180CF1FF3104D258
:10176000984202D9ACF1020123441B1A41EA074115
:101770009BE70F46E3E76146F7E77746ACE710469D
:1017800084E7834258D8B3FA83F434B9834201D34F
:10179000BA4251D8002101207AE7C4F1200122FA8F
:1017A00001F6A3401E4320FA01F3A04027FA01F1FD
:1017B00001434FEA16481FFA86FCB3FBF8FE08FB0C
:1017C0001E300B0C0EFB0CF943EA0043994502FA5C
:1017D00004F22DD9F3180EF1FF3004D2994502D945
:1017E000AEF102003344A3EB090389B2B3FBF8FE68
:1017F00008FB1E330EFB0CFC41EA03418C4519D952
:1018000071180EF1FF3304D28C4502D9AEF10203F8
:10181000314443EA0040A1EB0C01A0FB02239942B2
:1018200003D303D1A740974200D2013800212FE70C
:101830007046D8E77346ECE70021084628E7B1F187
:10184000000C2DE9F0474ADA40426CEB4C0C4FF0AB
:10185000FF35002B02DA524263EB4303164604467F
:101860006146002B7FD16645B2FA82F239D93AB18E
:10187000C2F12003914020FA03F3964019439440AB
:10188000370CB0B2B1FBF7F307FB131100FB03FCFD
:10189000230C43EA01439C4504D9F31802D29C452A
:1018A00088BF9B19A3EB0C03A4B2B3FBF7FC07FBA7
:1018B0001C3300FB0CF144EA0344A14204D934195F
:1018C00002D2A14288BFA419641A24FA02F00021AE
:1018D0001DB14442204661EB4101BDE8F08700257F
:1018E000B7E76AB9ACEB0603370CB0B2B3FBF7F15C
:1018F00007FB113300FB01FC210C41EA0343CAE75B
:10190000C2F120032CFA03F196400CFA02FC20FAF3
:1019100003F343EA0C03370CB0B2B1FBF7FC00FB56
:101920000CFE07FB1C1C190C41EA0C418E4504FA05
:1019300002F404D9711802D28E4588BF8919A1EB2F
:101940000E019BB2B1FBF7FC07FB1C1100FB0CF076
:1019500043EA0143984204D9F31802D2984288BF5F
:101960009B191B1AC0E76345B2D8B3FA83F64EB988
:10197000634501D3824203D8841A6CEB03031946F2
:101980002046A5E7C6F12004B34022FA04F71F431E
:1019900020FA04F12CFA04F30CFA06FC41EA0C01DB
:1019A0004FEA17491FFA87FCB3FBF9FE09FB1E3803
:1019B0000B0C0EFB0CFA43EA08439A4502FA06F2B6
:1019C00000FA06F03AD9FB180EF1FF3804D29A4516
:1019D00002D9AEF102083B44A3EB0A0389B2B3FB80
:1019E000F9FE09FB1E330EFB0CFC41EA03418C455A
:1019F00026D979180EF1FF3304D28C4502D9AEF105
:101A00000203394443EA0843A3FB0238A1EB0C016B
:101A100041459E46C44602D305D1984203D2B3EB5A
:101A2000020E68EB070CB0EB0E0361EB0C0101FA40
:101A300004F4F34044EA0300F14049E7F046CBE701
:101A40007346DFE72DE9F04306460F460546144688
:101A500008461946002B40F0A780BC42B2FA82F239
:101A600037D93AB1C2F12003904026FA03F39440EB
:101A7000184395404FEA144CA6B2B0FBFCF22B0C75
:101A80000CFB120002FB06FE43EA00439E451ED9F2
:101A9000E31802F1FF3703D29E4501D9971E234474
:101AA000A3EB0E03ADB2B3FBFCF20CFB12335643B7
:101AB00045EA0345AE4275D9651902F1FF3002D2FD
:101AC000AE4200D9901E40EA0740BDE8F0831746B9
:101AD000E6E74ABB3B1B0121200CA6B2B3FBF0FC9E
:101AE0002A0C00FB1C330CFB06FE42EA03439E4516
:101AF00056D9E3180CF1FF3704D29E4502D9ACF158
:101B000002072344A3EB0E03ADB2B3FBF0F200FBDC
:101B10001233564345EA0345AE4243D9641902F1F4
:101B2000FF30D0D2A642CCE7C2F1200127FA01F65D
:101B3000944007FA02F325FA01F10B434FEA144CE3
:101B40009540B6FBFCF1A0B20CFB11661A0C01FB30
:101B500000F742EA064297421ED9A21801F1FF3669
:101B600003D2974201D98E1E2244D21B9BB2B2FBF4
:101B7000FCF70CFB1722784343EA024398420DD945
:101B8000E31807F1FF3103D2984201D9B91E23446B
:101B90001B1A41EA06419FE70E46E6E73946F7E79A
:101BA0006746AFE710468EE7BB4257D8B3FA83F4D7
:101BB00034B9BB4201D3B24250D80021012084E79E
:101BC000C4F1200522FA05F0A340184326FA05F1D6
:101BD00007FA04F327FA05F84FEA104E1943B8FB49
:101BE000FEFC85B20EFB1C880B0C0CFB05F943EACE
:101BF0000843994502FA04F22CD9C3180CF1FF37B7
:101C000004D2994502D9ACF102070344A3EB0903BE
:101C100089B2B3FBFEFC0EFB1C330CFB05F541EA5D
:101C200003418D4218D941180CF1FF3304D28D4283
:101C300002D9ACF10203014443EA0740491BA0FB6F
:101C40000223994203D303D1A640964200D2013821
:101C500000213AE76746D9E76346EDE700210846E9
:101C600033E72DE9F043164604460D46002B40F0BD
:101C700081808E42B2FA82F230D93AB1C2F12003A9
:101C8000954020FA03F396401D439440300CB1B2C6
:101C9000B5FBF0F301FB03F700FB1355230C43EAFC
:101CA00005439F4204D9F31802D29F4288BF9B1973
:101CB000DB1BB3FBF0F5694300FB1533A4B244EA28
:101CC0000344A14204D9341902D2A14288BFA41905
:101CD000641A24FA02F00021BDE8F083D2B98B1B0C
:101CE000350CB0B2B3FBF5F100FB01F705FB113386
:101CF000210C41EA03439F4204D9F31802D29F42C8
:101D000088BF9B19DB1BB3FBF5F700FB07F105FB55
:101D10001733D3E7C2F1200321FA03F7964091402D
:101D200020FA03F30B43350CB0B2B7FBF5F100FB1F
:101D300001FC05FB1177190C41EA07418C4504FAB7
:101D400002F404D9711802D28C4588BF8919A1EB1D
:101D50000C019BB2B1FBF5F705FB1711784343EA81
:101D60000143984204D9F31802D2984288BF9B19C4
:101D70001B1AB5E78B42AFD8B3FA83F656B98B423C
:101D800001D3824203D8841A61EB03031D46204627
:101D90002946A1E7C6F12004B34022FA04F71F4305
:101DA00021FA04FC01FA06F320FA04F14FEA17487D
:101DB0001943BCFBF8FEBDB208FB1ECC0B0C0EFB9E
:101DC00005F943EA0C43994502FA06F200FA06F0D7
:101DD00039D9FB180EF1FF3C04D2994502D9AEF176
:101DE000020C3B44A3EB090389B2B3FBF8FE08FBEA
:101DF0001E330EFB05F541EA03418D4225D97918C2
:101E00000EF1FF3304D28D4202D9AEF10203394400
:101E100043EA0C43A3FB023E491B71459C467546B1
:101E200002D305D1984203D2B3EB020C6EEB070547
:101E3000B0EB0C0361EB050101FA04F4F34044EA52
:101E40000300F14048E7F446CCE77346E0E72DE9AC
:101E5000F04786468C460846089E15467446194645
:101E6000002B40F0C2808542B2FA82F245D94AB1D5
:101E7000C2F1200300FA02FC2EFA03F3954043EA74
:101E80000C0C94404FEA154EA8B2BCFBFEF8230C94
:101E90000EFB18CC08FB00F943EA0C43994528D9FE
:101EA000EB1808F1FF3704D2994502D9A8F10207CF
:101EB0002B44A3EB0903A4B2B3FBFEFC0EFB1C33C3
:101EC0000CFB00F044EA0344A04214D92C190CF195
:101ED000FF3304D2A04202D9ACF102032C44241AED
:101EE00043EA07401EB1D440002334607360BDE86C
:101EF000F0874746DDE76346F1E792BB431B0121CC
:101F00004FEA154EAFB2B3FBFEFC200C0EFB1C33A8
:101F10000CFB07F840EA0343984562D9EB180CF133
:101F2000FF3004D2984502D9ACF102002B44A3EB58
:101F30000803A4B2B3FBFEFC0EFB1C330CFB07F73B
:101F400044EA0344A7424ED92C190CF1FF3304D2C2
:101F5000A74202D9ACF102032C44E41B43EA00403F
:101F6000C0E7C2F1200320FA03F1954090402EFA19
:101F700003F303434FEA154EAFB2B1FBFEFC0EFB79
:101F80001C10190C0CFB07F841EA0041884504FAC3
:101F900002F422D969180CF1FF3004D2884502D925
:101FA000ACF102002944A1EB08019BB2B1FBFEFC9D
:101FB0000EFB1C110CFB07F743EA01439F420ED9AD
:101FC000EB180CF1FF3104D29F4202D9ACF10201AF
:101FD0002B44DB1B41EA004192E76046E3E76146A0
:101FE000F7E76046A3E76346B7E7834206D916B929
:101FF000002108467BE7C6E900E0F9E7B3FA83F77A
:102000008FB9834201D3724508D8BEEB020460EB5E
:10201000030301209C461EB9002168E73846FAE711
:10202000C6E9004CF8E7C7F1200CBB4022FA0CF4DB
:102030001C432EFA0CF120FA0CF3B84001434FEA8E
:1020400014490EFA07F5B3FBF9F81FFA84FE09FBF1
:1020500018300B0C08FB0EFA43EA00439A4502FACB
:1020600007F240D9E31808F1FF3004D29A4502D9AB
:10207000A8F102002344A3EB0A0389B2B3FBF9F8E9
:1020800009FB183308FB0EFE41EA03418E452CD9AB
:10209000611808F1FF3304D28E4502D9A8F102037A
:1020A000214443EA0040A0FB0298A1EB0E01414508
:1020B000CE46434602D306D14D4504D2B9EB020EBB
:1020C00068EB04030138002EA6D0B5EB0E0261EBDD
:1020D000030101FA0CFC22FA07F34CEA0303F9406E
:1020E000C6E9003198E74046C5E74346D9E7000016
:1020F000C1B2034808B516F0D1FD012008BD00BFEC
:1021000052B0010808B50C480FF058FF00230B4AE5
:10211000C2F89830D2F8A010C90005D5D2F8A010A6
:1021200061F08051C2F8A0100133082BF0D1BDE856
:10213000084000F027B800BFF120000800ED00E0E3
:102140004B1C10B50C4602D10023184610BD084B9D
:1021500008461B6843B198470028F5D02246002165
:1021600017F08FFC0346F0E701F078F9F4E700BFC1
:10217000A4730420024B1B6803B1184701F0CCB9CB
:10218000A073042038B50F4C2578C5B90E4813F05C
:102190003AF80E4813F037F80D4813F034F80D4BA9
:1021A0002C222946184617F06CFC0B4A034618F0FF
:1021B00067F812585A60094A1360012323700020FF
:1021C00038BD00BF0876042000740420C0730420CA
:1021D000A8730420D473042008000000BC730420FA
:1021E000024B1A780AB100221A7070470876042050
:1021F000034B00B518F044F818585DF804FB00BF15
:1022000008000000034B00B518F03AF81B58186E90
:102210005DF804FB08000000F8B50C6806460F46A0
:10222000A30F012B04D00123002086F8B830F8BD9D
:10223000184B03EAC403F72BD0E901C220D800EB06
:1022400053050CEB02012A6A9AB100249445EAD89E
:102250009142E8D953681BB997420AD13CB916E0BC
:102260009742134410D014461A46EFE71B1B6360D5
:102270000EE00022084B0120114600F0EDFB07E0C4
:10228000BDE8F84012F0DFBF002CEFD11C462C62F5
:102290000120CCE7F8FFFF3F55B001080B68F72A93
:1022A00003F0605343EAD203F0B543F080431D4E80
:1022B0004FEAD204D0E901750B6006EAC3033D443E
:1022C00001EB030646F8043C0DD88F4224D88D421A
:1022D00022D900EB8402136A1BB94B601162012002
:1022E0001EE05B1AF9E700230A61C1E902334B6083
:1022F000D0F8B4301C69944206D29C6844B9996005
:10230000CB60ECE72346F5E75C680CB95960F7E76A
:10231000BC4201D3AC42F5D3012380F8B830002091
:10232000F0BD00BFF8FFFF3F2DE9F04101F10B08C0
:1023300004460D4628F00708414508D890F8B870C3
:102340004FB10022144B0120114600F085FB002400
:102350002046BDE8F08100F10C06304612F05CFF2B
:102360002046414612F0DAFF044688B10368291D71
:102370000A4A02EAC30223F05043914243F0004369
:1023800044F8043B04D2521A6019394617F079FB1D
:10239000304612F047FFDBE78AB00108F8FFFF3F45
:1023A0002DE9F84F05460C4651B190F8B83053B1BD
:1023B00000224FF0FF34374B0120114600F04CFB58
:1023C0002046BDE8F88F00F10C090F1FD0E901A6E7
:1023D000484612F021FF574559D30AEB06084745F6
:1023E00055D254F8043C9A0F022A05D04FF0FF341E
:1023F000484612F017FFE3E7DA00F7D4264E06EA64
:10240000C306D5F8C4303344C5F8C43054F8043C8E
:102410009B0017D454F8084C3C1BA24512D8A04589
:1024200010D9D4F800B04FEA9B73012B0AD1214692
:102430002846FFF7F1FE0028D8D0174B274603EABD
:10244000CB031E44BC19A24512D8A04510D9D4F81C
:1024500000B04FEA9B73012B0AD121462846FFF7B3
:10246000DBFE0028C2D00C4B03EACB031E44BC1990
:10247000324639462846FFF711FF0028B6D05445AA
:1024800005D344453EBF236823F000532360002456
:10249000AEE700BFC0B00108F8FFFF3F2DE9F74FDE
:1024A00002F10B0406460D4624F00704A2420AD8A6
:1024B00090F8B8B0BBF1000F0AD00022484B0120C1
:1024C000114600F0C9FA0024204603B0BDE8F08FA1
:1024D00019BB00F10C07A846384612F09DFE2146B4
:1024E000304612F01BFF0446002842D0026800214B
:1024F00022F0504343F0004344F8043B2046394B5C
:1025000003EAC209A9F104094A4617F0BAFA002DF4
:1025100057D1384612F086FED6E751F8043CDFF872
:10252000C49009EAC308444549D900F10C07426840
:10253000A1F1040A816838460192009112F06CFE04
:102540000AEB0803019A9342C9D300990A449342C3
:10255000C5D21A68910F0129C1D109EAC209C14443
:10256000A145BCD3194630460093FFF755FE009BAA
:1025700018B9384612F056FEA5E755F8042C59460E
:10258000184602F0784242EAD40245F8042CA4EB43
:10259000080217F076FAA1450ED9A9EB04020AEB5E
:1025A00004013046FFF77AFE0028E2D05AF80430E2
:1025B00043F000534AF80430384612F033FE2C46FC
:1025C00082E74946A8F104032A46204612F0DDFFBF
:1025D000384612F027FE29463046FFF7E1FE73E742
:1025E0008AB00108F8FFFF3F2DE9F0410D4617467C
:1025F0000446C822002117F044FA3A460021284632
:1026000017F03FFA04F10C0012F0FFFD064648B146
:10261000002200241B4B0120114600F01DFA204629
:10262000BDE8F081C4E930074FF01408014624608A
:102630004246C4E9015704F1A0073846C4F8B47013
:1026400017F01FFAD4F8A0301022314603F060537F
:10265000281DC4F8B08043F0804343F00203C4F85F
:10266000A03017F00EFA4FF080432B60A368DB0810
:1026700043F0C0432B60C4F8A850EF60A3682B61FF
:10268000CDE700BFF2B0010807B5FF2900EB01025A
:1026900000F1070020F0070009D900F1CC01521A1F
:1026A00022F0070203B05DF804EBFFF79DBF0022A4
:1026B0004FF480730120CDE90013044B114600F064
:1026C000CBF9002003B05DF804FB00BF11B1010895
:1026D00013B5144610F0070208D0154B002211461E
:1026E000012000F0B9F9002002B010BD032908D87C
:1026F0000423CDE900130F4B1146012000F0ACF983
:10270000F1E714F0070101D00B4BE8E7FF2B06D8E7
:102710004FF48072CDE90032084B0A46ECE7043BE7
:10272000211D23F0070202B0BDE81040FFF75CBF97
:1027300039B101086CB101089CB1010811B101085F
:102740002DE9F84304461346081D8D18666811F0FC
:102750000702A0EB060608D02E4B002211460120EE
:1027600000F07AF94FF0FF300BE0043BA84223F071
:10277000070302D8A168994201D9274BEDE716B9A2
:102780000020BDE8F88394F8B8300BB1234BE5E79F
:10279000D4F8B45031466060281DDFF8848012F010
:1027A00074FE05F1080012F070FE05F10C0012F045
:1027B0006CFED4E901572F44BD4201D3E0D006E0BE
:1027C0002B6818EAC30902D07A1B4A4509D20022B5
:1027D000124B0120114600F03FF9012384F8B83074
:1027E000C0E79B0F012B13D1B9F1F70F10D9314678
:1027F000281D12F04AFE05F1080012F046FEEA68B4
:10280000D4F8B4309A4203D005F10C0012F03DFE2A
:102810004D44D1E7CDB1010801B201082FB2010842
:10282000F8FFFF3F03282DE9F04706468A46914608
:1028300098460CD9B0F5803F0AD9214B00220120DF
:10284000114600F009F900242046BDE8F08704266F
:10285000B9F1000F02D0B8F1000F01D1194BEDE72B
:10286000BAF1000F06F1060518BF14274FEA8505D7
:1028700008BF0027EF19384600F0F0FD044608B9FC
:10288000114BDBE73A46002117F0FBF8BAF1000FD5
:102890000ED06019606012F0B8FC48B100220B4BFA
:1028A0000120114600F0D8F8204600F035FECAE7B6
:1028B000089B26602361099BC4E902986361C3E712
:1028C00062B201088DB20108D3B2010800B3010859
:1028D0002DE9F0410E461746044600B139B90022F1
:1028E000204B0120114600F0B7F8002035E0406889
:1028F00008B112F091FCA368304698472568B0FBF8
:10290000F5F202FB150504EB8505D5F81880B8F142
:10291000000F05D10C2000F0A1FDB0B9124B06E06C
:10292000E3683146D8F80000984758B10F4B0022B1
:102930000120114600F090F860680028D5D012F010
:1029400071FCD2E7D8F80880E1E7C0E90067AB691D
:102950008360A861606810B90120BDE8F08112F0C1
:1029600061FCF9E72EB3010892B301085FB30108D7
:1029700070B50E46044600B139B90022154B01204E
:10298000114600F069F800251FE0406808B112F018
:1029900043FCA368304698472368B0FBF3F202FB80
:1029A0001300063054F820502DB960680028EAD092
:1029B00012F038FCE7E7E36831462868984730B101
:1029C00060686D6808B112F02DFC284670BDAD68D6
:1029D000EAE700BFC4B301082DE9F041044640B95D
:1029E00002460146184B012000F036F82046BDE8AB
:1029F000F081406808B112F00FFC04F114070026C2
:102A00002368B3420BD8606820B112F00BFC6068F9
:102A100012F000FC204600F07FFD0120E7E757F8A8
:102A2000045F0DB90136EBE72369D5F808800BB1D7
:102A30002868984763690BB16868984728464546F7
:102A400000F06AFDEDE700BFF3B30108014B186029
:102A5000704700BF4000012008B42DE9F041164640
:102A60008FB01C220D46002104460DEB020006919A
:102A700017F007F8224B1B689C423CD8FFF7B8FBC5
:102A8000074612F0D2FB1F4A0023FEF70BFD044657
:102A900019461D4B1046B4FBF3F202FB13444FF4EE
:102AA00061634FF47A72B4FBF3F803FB184400231C
:102AB000FEF7F8FC3C222021029006A8B4FBF2F3BA
:102AC00002FB1344114ACDE90034434611F0C8FC1F
:102AD0003A4606A90E4812F064FB25B13246294653
:102AE0000C4812F05EFB16A91598059112F066FBD2
:102AF000094812F056FB0FB0BDE8F04101B0704735
:102B00004000012040420F008051010019B401082B
:102B10002DB401083AB4010894F5010810B5044633
:102B200038B9024601460C4B0120FFF795FF2046BD
:102B300010BD406808B100F0EFFC206920B112F030
:102B400069FB206900F0E8FC14220021204616F001
:102B500098FF0120ECE700BF48B4010810B588B029
:102B600014F0A7FA044605496846FEF7FBFC6946DF
:102B7000204614F0D4FA08B010BD00BF75B40108A7
:102B800030B50D4689B014F094FA04462B46054A38
:102B90002021684611F064FC6946204614F0BFFA13
:102BA00009B030BD90B4010830B50D4689B014F0BD
:102BB00080FA04462B46054A2021684611F050FC55
:102BC0006946204614F0ABFA09B030BDA3B4010841
:102BD00030B50D4689B014F06CFA04462B46054A10
:102BE0002021684611F03CFC6946204614F097FA13
:102BF00009B030BDBEB4010830B50D4689B014F03F
:102C000058FA04462B46054A2021684611F028FC54
:102C10006946204614F083FA09B030BDCCB40108EF
:102C200008B5024812F0BDFA012008BD52B00108F3
:102C3000014812F0B6BA00BF54ED010838B50D4690
:102C400004460146034812F0ACFAAB682046013353
:102C5000AB6038BD52B001082DE9F04F1C46B1B051
:102C600007468846154607AB002221463A9813F0DE
:102C7000A2F80490002800F01B814FF00009039592
:102C8000CA46002374E02BB9252800F0C3814146D1
:102C9000B847F6E76E2800F2B48057280BD82E28E4
:102CA00062D81F283CD841462520B847039B41469F
:102CB00013F8010CECE758381628F4D801A252F8A2
:102CC00020F000BF552E0008A72C0008A72C0008F4
:102CD000A72C0008A72C0008A72C0008A72C000888
:102CE000A72C0008A72C0008A72C0008A72C000878
:102CF000552E0008552E00088D2D00088D2D00083A
:102D00008D2D0008712D0008552E00082130000877
:102D1000A72C00084F2E0008A72C0008832C0008C1
:102D200020380E28BFD801A252F820F0712D0008DB
:102D3000A72C0008A72C0008712D0008A72C00085C
:102D4000FF2F0008A72C0008A72C0008A72C0008BC
:102D5000A72C0008A72C0008712D0008A72C00083C
:102D6000712D0008712D000839280CD82F289AD011
:102D7000039E324612F8010B0392002883D1049877
:102D800031B0BDE8F08F453802288CD8A6EB090693
:102D900006F1020BBBF11F0F40F23481584600F0E0
:102DA0005DFB0546002861D05A460021284616F0F2
:102DB00068FE731C4A465946284612F0E6FBE31D9E
:102DC000079A23F0070303F1080494426AD84021CC
:102DD000D3E900230DEB0100CDE900232A4611F0D1
:102DE0003FFB002805DD10AE16F8010B002840F06F
:102DF0000E8108AB9D423FF444AF284600F08CFBA7
:102E00003FE76F38C0B20B283FF64DAF012240F2CA
:102E1000432182400A421DD112F4026F40F0FE802D
:102E200004287FF440AFA6EB090606F1020BBBF1C4
:102E30001F0F7FD9584600F011FB054600287DD1B1
:102E400026464146384612F06DFC344619E70AF131
:102E5000010A8DE7A6EB090606F1020BBBF11F0F75
:102E600009D9584600F0FAFA054640B941463846B5
:102E700012F058FC05E74FF0200B0DEB0B055A46FE
:102E80000021284616F0FDFD731C4A465946284687
:102E900012F07BFBBAF1010F079B32DC04F1040B4B
:102EA0009B450AD908AB9D4202D0284600F034FB6E
:102EB0005D493A9814F033F95DE0BAF1010F2368E7
:102EC0000ED1721EA95CA8186C39C9B20E2907D898
:102ED000564A0A4112F0010202BFA95D0170AA55CB
:102EE00040212A460DEB010011F0BAFA002803DD5B
:102EF00010AC14F8010BB0B908AB9D4216D15C467A
:102F0000BFE6073424F0070404F1080B9B45C9D839
:102F10004021D4E900230DEB0100CDE900232A462E
:102F200011F09EFAE2E74146B847E2E7284600F092
:102F3000F3FAE4E74FF0200B0DEB0B055A460021A6
:102F4000284616F09EFD731C4A4659462846261D03
:102F500012F01BFB079B9E42A4D8226800233A98DC
:102F6000059200F055FB059A40B908AB9D4202D08E
:102F7000284600F0D1FA0023049300E700233A9892
:102F8000059212F0E1FE8346FEF7F4FA00F14001EB
:102F9000059A802912D90846059100F05FFA059933
:102FA000044680B94146384612F0BCFB08AB9D424E
:102FB0003FF44BAF284600F0AFFA46E7104310ACA1
:102FC00008BF4FF0000B5B462A46204611F048FA36
:102FD000002804DD04F1FF3B1BF8010F40B908ABEA
:102FE0009D4208D110AB9C423FF42FAF2046E2E750
:102FF0004146B847F0E7284600F08EFAF2E741462E
:10300000252045E64FF0200B0DEB0B05CCE64146A5
:10301000B847E9E69A46B1460123A9E69A46A7E6EB
:103020004FF0020AA4E600BFD9B40108FEBEFFFFBC
:103030002DE9F04186B00C4617461D46DDF830807C
:1030400014F037F8042200234146064600F0BEFA89
:1030500018B9002006B0BDE8F081CDE9034700278C
:1030600043462A4603A9064800960597FFF7F4FD54
:103070000028EED0DDE90430984238BF2754E9E754
:10308000415701082DE9F0411E4686B00C4617460F
:1030900014F00FF8042200233146054600F096FA9A
:1030A00050B102AB00222146284612F084FE38B906
:1030B0000F49284614F033F8002006B0BDE8F0812F
:1030C000029B4FF000083A4603A91B1B09480095D4
:1030D000049333460394CDF81480FFF7BDFD002818
:1030E000EAD0DDE90430984238BF04F80080E4E714
:1030F000D9B401084157010870B586B014460D4691
:1031000013F0D7FF00230422214606460593CDE99C
:103110000333002300F05AFA10B9002006B070BD46
:1031200023462A4603A904480096FFF795FD002888
:10313000F3D00598F2E700BF3D2C000810B5144607
:1031400013F0B7FF10220023214600F03FFA68B1C8
:1031500012F06BF8074A0023FEF7A4F94FF47A73D4
:10316000C4E900015A430020A26010BD4FF0FF30B7
:10317000FBE700BF40420F00014B03603420704763
:10318000440001202DE9F0410E461446074608B3DD
:1031900021B32AB34FF00308124DB8F1010801D151
:1031A000404617E039462868FEF7D2F9A0B9314603
:1031B0006868FEF7CDF978B92B7A1035103404F829
:1031C000083C15F8073C04F8073C95E80F0084E834
:1031D0000F000120BDE8F0812035DEE70846F9E761
:1031E0001046F7E70000012013B548B1054C0092E6
:1031F000054A002B0CBF23461346044A11F030F950
:1032000002B010BD1DB7010819B7010822B70108A7
:10321000012870B50C4615461E461CD910F0020256
:103220000DD00E4B002211460420FFF715FC33464B
:103230000B4A20462946FFF7D7FF002070BD410703
:1032400001D5084BEFE70728F2D800F00300022869
:1032500001D1054AEDE70120F0E700BF3CB70108C6
:1032600097B70108ACB70108DCB701080128F8B529
:1032700004460D4616461F4601D80120F8BD8207B8
:1032800004D50A4A31462846FFF7AEFF630707D543
:103290003B46074A28463146FFF7A6FF0020EDE7E8
:1032A000052CEAD93B46034AF4E700BFFCB7010806
:1032B00014B8010897B7010837B505460C461946FA
:1032C0001046631902D2002003B030BD2B46034ADA
:1032D000009411F0C5F80120F6E700BF59B80108C5
:1032E0007FB504460020039003A801900898009041
:1032F0002068DDE9095612F089F9032810D8DFE8C3
:1033000000F00209111423680120039A134423607A
:1033100004B070BD0023064A31462846FFF764FF1B
:103320000020F5E70023034AF6E70023024AF3E70B
:1033300083B80108A3B8010853BE010873B5069D00
:103340001146079C00220346089E012C08BF9542A7
:1033500008D1104B11460220FFF77EFB00242046C7
:1033600002B070BD80B12A4611F02AFF0446002841
:10337000F4D00322314611F03EFF0028EFD0294659
:103380002046FEF7F7FEE9E7024629460090FEF7E1
:10339000D7FEEBE7B5B8010830B585B0D0B9D1E9B3
:1033A00000542146284612F0BCF8024640B11B4B9F
:1033B000012119701A4B18601A4B1C60012007E09C
:1033C0000146194B0120CDE90054FFF745FB0020D1
:1033D00005B030BD01281AD18A68D1E9003063B147
:1033E0005AB1934209D00D4902240C700F490B6069
:1033F0000F4B18600F4B1A60E0E7CDE90102002285
:10340000009301200C4B1146FFF726FBDFE7022853
:10341000DDD1024B03221A70D0E700BF09760420E9
:103420002C74042014740420F8B8010820740420BB
:103430001C7404201874042020B9010810B5054C30
:103440002378012B03D1044B186812F06EF8002387
:10345000237010BD097604202C74042010B530B9F7
:1034600002460146114B0220FFF7F6FA0120104BED
:103470001C789CB1012C06D10E4B0146BDE81040D2
:10348000186812F056B8022C04D10B4BBDE810405E
:103490001B681847BDE8104011F07DBE074B22465F
:1034A00021460220FFF7D8FA204610BD51B9010885
:1034B000097604202C740420207404207EB90108AD
:1034C00010B5114C0A4624783CB9104B22462146CF
:1034D0000220FFF7C1FA002010BD012C06D10C4BD1
:1034E0000146BDE81040186812F025B8022C06D13C
:1034F000084B1B68002BEED0BDE810401847BDE814
:10350000104011F04ABE00BF09760420BBB9010883
:103510002C7404201C740420014620B90B4B024675
:103520000220FFF799BA0A4B1A7812B9094B1146D3
:10353000F6E7012A03D1084B186811F0FEBF022AF2
:1035400002D1064B1B68184711F029BEF9B90108D2
:103550000976042027BA01082C740420187404206A
:10356000054B01461B78012B03D1044B186811F061
:10357000ECBF0020704700BF097604202C740420A3
:10358000F8B5054612F0DCFB0446DDE90616A0B1ED
:10359000002701208F4270EB06070ED3D1F1000CFB
:1035A00060EB060794459F4107D3891843EB060358
:1035B000D4E906628E429A4104D22846024913F0A9
:1035C0009CFD0020F8BD00BFD9B4010870B50446C9
:1035D00012F0B6FB054690B100260120964270EB32
:1035E00003060CD3D6435B428E4273F1000306D32D
:1035F0002B6A8B4203D81144AB6A8B4204D220461B
:10360000024913F07AFD002070BD00BFD9B4010853
:103610002DE9FF41054616461F4612F091FB40B9C1
:1036200000241749284613F068FD204604B0BDE881
:10363000F08102A94FF0000828460191CDF80080E2
:1036400012F0A1FB04460028EAD0002FE8D102992D
:103650000123039A88459341E2D3891B3B463246B6
:10366000284612F071FB034601448B421A4604D2ED
:1036700012780133002AF8D1D7E7D6D1D0E700BFBE
:10368000D9B401082DE9F04198460646DDE9063730
:1036900012F056FB28B93046134913F02EFD0020D6
:1036A00013E0D0E90654D0F820C0AA4278EB040E0B
:1036B000F1D2944459B9AD1A64EB08049D42BC415F
:1036C000E9D3089B0120C3F800C0BDE8F081816AFE
:1036D00063468B421A4601D3F3D1DCE712780133FB
:1036E000002AF6D1EDE700BFD9B401082DE9F04F6B
:1036F00080468DB017460C46002975D0D1F820B011
:103700000D6BD1E90623CDE90623CA688B6B0992BC
:10371000D1E904620A921FB901200DB0BDE8F08F13
:10372000F6190DD20A9AB24201D2012409E05B1BBC
:10373000089321D0086C11F006FFE8B100F07EFD7F
:103740000024B8F1000F15D02A4B196891B1D8F8B0
:1037500000303846284A012B126894BFD8F8283127
:103760000023CDE903320023CDE901480093DDE9D0
:10377000062388470020D0E7099B5846A3FB069AFA
:10378000DDE90623CDE9029ACDE9009AFFF7D6FDDF
:1037900003460028D4D0089A22B3A0EB0B010B906B
:1037A000206C294411F0CDFEB0FA80F10B9B490941
:1037B000A5EB0B05089A236220461D444B44C4F830
:1037C0001CA025631544099AA3625346A563C4E966
:1037D00003260A9AC4E905294A4612F000FB00298B
:1037E0009AD1ADE70121E3E700220023CDE90623CA
:1037F000A7E700BF2874042024740420F8B5074606
:1038000014200C4615461E46FFF728FE70B1084BE3
:103810002946C5601A680674026010221860054BBC
:10382000C0E90174204616F08CF90120F8BD00BFF4
:1038300030740420A16F01082DE9F04F8BB04FF0D8
:1038400000098846164605934D466F4BDFF8BCA12C
:103850001C680490002C5CD12746059B002B00F0CF
:10386000CC80149B002B00F0C880159B002B00F02F
:10387000C480002F00F0C080002D41D095F800A03A
:10388000BAF1000F00F0BD80002E00F0AA8028469B
:10389000FDF770FE012840F2A480BAF1280F40F035
:1038A000A080B6F800E0431E0EF101029342C0F082
:1038B0009880691C00220B46724513F801CB5ED339
:1038C000BCF1290F40F08D80B6F802C0BCF1000FAA
:1038D00013D02844834280F0848016444C484A78B0
:1038E000337C0690A3F17C0003287AD828336B44FC
:1038F00013F88C3C934274D18B1C1B78002B70D135
:10390000059B159A1D60149BC3F80090237C1370CF
:1039100073E004996068D4F800B0FDF719FE60BB4D
:103920001023D4E90212CDE90700099006A8CDF8CA
:1039300000A0CDF8188016F0ACF820B14768D0E9A7
:103940000259002F89D198F800305F2B15D1002340
:1039500006A8D4E90212CDE90733099308F101035F
:10396000CDF800A00693102316F093F828B147680D
:10397000D0E90259002F7FF470AF5C466AE706EB8E
:10398000020ADFF88CB09AF810A0CDF818B0AAF1AE
:103990007C0BBBF1030F24D80AF1280BEB441BF876
:1039A0008CBCE34517D0BAF17F0F1AD1BCF12A0FB6
:1039B00014D102F1010CF4450DD206EB0C0A9AF871
:1039C00010A0BAF17F0F06D191F801A0BAF17E0FD5
:1039D00001D18B1C6246013219466CE7BCF1240F01
:1039E000F9D0049B00220220CDF808801146CDE9D1
:1039F0000053084BFFF730F8002738460BB0BDE8FE
:103A0000F08F55467CE700BF30740420A16F010899
:103A1000466649696ABA010838B5054C206808B994
:103A2000206038BD0568FFF777FD2846F7E700BF3F
:103A30003074042013B501A8FFF79EFB01990246DC
:103A4000084813F0B5FA044640B1074B082260213C
:103A5000064816F076F8204602B010BDFFF7DCFFEE
:103A6000F9E700BFC2BA0108A96F01088403012069
:103A7000F0B5058889B000234488052D0393CDE96E
:103A80000433CDE9063302D9002009B0F0BD012C82
:103A9000FAD804A9282200F10F060F468DF810204D
:103AA000AB4203F1010220D320322925991C6A443C
:103AB00002F8105C34B31844037C7F2B24D07E2B97
:103AC000E2D1492201F12003104902976B4403F827
:103AD000102C60220E4B009308230DEB030015F011
:103AE000D8FF0028D0D04068CFE716F8013F7F2BE1
:103AF00006D07E2BC8D1492301F8013F1346CFE7FA
:103B00006923F9E77622DDE76922DBE784030120F8
:103B1000A96F01080B4621B1034A8021683010F0DB
:103B20009FBC80F8681070476CBD0108134610B147
:103B3000014A10F095BC70479DC4010870B5064657
:103B40001546FFF78BFC044630B91DB105492846E0
:103B5000FFF7E0FF204670BD3246002115F091FFCF
:103B6000F8E700BF7ABD0108074A08B51368013BB2
:103B700013603BB9FFF750FF11F00BFBBDE80840A5
:103B8000FFF75CBC08BD00BF34740420014B1878FB
:103B9000704700BF0A76042008B5034613F029FADF
:103BA00008B1014A137008BD0A76042070B5184D9B
:103BB00004462E6836BB014611F8040BFFF7ECFBF8
:103BC00008B9002070BD94F8B400FFF7E5FF10B904
:103BD000FFF734FCF5E794F8C4302BB10D4B3246B7
:103BE00031460220FEF738FF13F0F8F90028EFD035
:103BF000E2693AB1D4E9050113F0DAF910B9FFF737
:103C0000B3FFDEE72B68012001332B60DAE700BF4A
:103C10003474042091BD010810B5014604460A48D9
:103C2000FDF796FC70B121460848FDF791FC48B1BC
:103C300021460748FDF78CFC20B12078B0FA80F0CF
:103C4000400910BD0120FCE7C2BA0108E8BD010827
:103C5000F6BD0108F7B5089E07461C4615463AB959
:103C6000144A31462046FFF761FF002003B0F0BD43
:103C7000032901D8104AF4E713F0C0F918B101285C
:103C80000CD00E4AEDE723463846009613F0D2FDDD
:103C90000028EAD06B7980F8D030E7E72346384631
:103CA00000960AF0C3FF0028DFD06B7980F8DC3083
:103CB000DCE700BF0DBE01083ABE010862BE010884
:103CC0001FB500240093134602AA0394024C0294E9
:103CD000FFF7C0FF04B010BD95F5010838B50D46DB
:103CE000144688B1884207D200220220074B1146B1
:103CF000FEF7B2FE284638BD9042FCD90022044BA4
:103D000002201146FEF7A8FE2046F4E795BE010802
:103D1000DCBE010870B50468DDE904561CB9BDE8D5
:103D2000704008F08BB8012C03D1BDE870400BF057
:103D30005FBA2846024A3146FFF7F8FE002070BD00
:103D400021BF01082DE9F041164604460D461F46E5
:103D500013F031F9024638B901460F4B0120FEF746
:103D60007BFE0020BDE8F081A3681B684BB1012BEE
:103D7000F7D13B46324629462046BDE8F0410BF0DC
:103D800065B93B4632462946204613F09FFDA3689D
:103D90001B68012BE6D1ECE750BF0108212996BF33
:103DA000024B034953F82110FFF7B4BE68A901087C
:103DB000ADBF01080149FFF7ADBE00BF6DBF0108EF
:103DC0002DE9F04F1546A9B088468346039311F0BC
:103DD0006BFF6E8807462988012E38BF0126731EA7
:103DE00003EB41010593339B023120290AD9880056
:103DF000DBF80820890FFFF7A1FE339B044610B9BA
:103E000005465AE008AC05F10F02DDF80CA04FF0B2
:103E10000109C4F800B00492039A2888AAEB0202B0
:103E200090421FD806F1804604EB8902013E043A15
:103E300003EB86069E4276D1329B059ACBF834304E
:103E40006B884A44002B73D14F4B214640461B6878
:103E500098470023CBF8343097F86850B5FA85F5C9
:103E60006D0924E0049911F8012F7C3A0491032A8A
:103E70003BD8DFE802F03D513D02194651F8042BD2
:103E80000691039961B39AF801002A2819D19AF88A
:103E9000020007927E2838460CBF5B68012300931E
:103EA00000230193FFF76CFB079AA0B9002508AB2C
:103EB0009C4202D02046FFF72FFB284629B0BDE8E0
:103EC000F08F24280CD1002338460792FFF7A0FB7F
:103ED0000028EBD0079A0023384611F035FF024640
:103EE00044F8292009F10109069B0AF1010A93E728
:103EF00019F0010F184618BF09F1010950F8081B05
:103F00004FEA890244F82910596809F10209134659
:103F1000234459600346E8E753F8042B44F829206A
:103F200009F10109E1E753F8040B42F8040F81E7B6
:103F30002B881D442B7C7C3B032B8AD8DFE803F0C5
:103F40001B130A02114B214640461B689847359BBC
:103F500018607EE70E4B214640461B689847359B0C
:103F6000C3E9000175E70B4B214640461B689847A3
:103F7000359B18606DE7084B214640461B68984703
:103F8000359A1060516064E7840601209006012094
:103F900094060120880601208C0601202DE9F04FAF
:103FA000F9B0934605464FF480720DF1E0089DF894
:103FB0000C320DF130098A46404600210193829E61
:103FC00015F05FFD40220021484615F05AFD1422ED
:103FD000002102A815F055FD1422002107A815F0B4
:103FE00050FDBBF8000010280FD92A46000100211F
:103FF000FFF7A4FD044648B968492846FFF78AFD43
:104000000025284679B0BDE8F08F44466FF00E07D2
:1040100004F110010BF10F003246A7EB0B0707EB81
:10402000000CBBF800E0F44516D3BBF802000428EE
:1040300051D92A4600010021FFF780FD07460028DC
:104040004AD156492846FFF765FD44453FD1002532
:104050003846FFF761FAD4E710F801CFACF17C0CD9
:10406000BCF1030F27D8DFE80CF0231A0C024FF045
:10407000000C01F810CC52F8043B41F8083C103118
:10408000CDE74FF0010C01F810CC94465CF8083BEA
:1040900041F8083C526841F8042C6246EFE74FF0C3
:1040A000020C01F810CC52F804CB41F808CCE6E73A
:1040B0004FF0030CE7E73A492846FFF72BFD44454C
:1040C0009ED000254F462046FFF726FA34E02046D2
:1040D000FFF722FABBE74F46BBF80020019B049292
:1040E0000292002203940992BBF8022008970792DB
:1040F0002BBB07A902A8D047824638B303685B6888
:1041000013B3002168221EA81D9115F0BAFCDAF83D
:1041100000206C211DA8136852686B2B28BF6B23ED
:1041200011F033FA1DA92846FFF7F4FC504611F0B0
:1041300046FD00254445C6D14F4589D161E707AA10
:1041400002A98498D047D7E71649ECE7BBF80020CE
:1041500039460F325A44BBF80200824501D301258B
:10416000E8E712F8010F7C38032812D8DFE800F0E6
:1041700009020902886846F8040B0AF1010A1031A5
:10418000E9E78868B4464CF8080BC8687060664672
:10419000F3E705492846FFF7BDFCCAE77ABD0108E9
:1041A00080BF010897BF0108BFBF0108F0B5A7B0E5
:1041B0000C460E68054601930F790021CDE90223D4
:1041C0002C9B0A9107932D9BCDE90411CDE9081191
:1041D00006932EB91749FFF79DFC002027B0F0BDCC
:1041E000FFB906A901A8B047044608B303685B6895
:1041F000E3B1002168220CA80B9115F042FC226863
:104200006C210BA8136852686B2B28BF6B2311F02D
:10421000BCF90BA92846FFF77DFC204611F0CFFC26
:10422000DBE706AA01A9A068B047DDE70249F1E78C
:104230000120D3E7D7BF010897BF01080022024B36
:1042400001201146FEF708BCFFBF010807B503694E
:1042500001935BB101AA934208D911F025FD0449ED
:10426000FFF758FC002003B05DF804FB0120FAE7DB
:1042700008C101082DE9F74F9DF8304082460E46EF
:10428000914698469DF834B09DF8387051F8045C1A
:10429000C4B929462846FDF755F838B13749504684
:1042A00012F02BFF204603B0BDE8F08F49462846A8
:1042B000FDF72AF820B941462846FDF72FF808B146
:1042C0002F49ECE7BBF1000F27D0002F29462846E5
:1042D00015BF4FF0004400246FF0004A4FF0FF3A42
:1042E000FDF730F8A8B949462846FDF70DF848B95A
:1042F00041462846FDF712F868B9284637B1FDF760
:1043000037F8044646F8044C0124CBE7FDF756F88D
:10431000F7E70024F6E75446F4E7EFB94FF0FF3B28
:104320003C46BA465B46294628460193FDF70AF803
:10433000E8B949462846FCF7E7FF50B94146284608
:10434000FCF7ECFFB0B9284677B1FDF724F9044635
:104350008A4646E9014AD7E75C464FF0004A4FF0EB
:10436000FF3B6FF00043DEE7FDF7B4F8EFE7002412
:10437000A246EEE75C46DDF804A0EAE752C1010878
:104380002AC101082DE9F74F9DF838A00546A1F193
:10439000080088469DF83C409DF84090CDE90023F8
:1043A00012F0AFFF06460F46BAF1000F1CD10246CD
:1043B0000B46FCF745FC38B14249284612F09DFEF9
:1043C000504603B0BDE8F08FDDE9002330463946A2
:1043D000FCF718FC30B930463946DDE90C23FCF710
:1043E0001BFC08B13849E8E794B3B9F1000F324635
:1043F0003B463046394615BF4FF0004400246FF06D
:1044000000454FF0FF35FCF71BFCE8B93046394654
:10441000DDE90023FCF7F6FB70B930463946DDE9EB
:104420000C23FCF7F9FB88B930463946B9F1000F87
:1044300007D0FCF71BFC044648F8084C4FF0010A73
:10444000BEE7FCF73BFCF6E70024F5E72C46F3E774
:10445000B9F1000F25D14FF0FF3B4C464D46DA46EF
:1044600032463B4630463946FCF7EAFB18BB30463D
:104470003946DDE90023FCF7C5FB78B930463946FB
:10448000DDE90C23FCF7C8FBC0B930463946B9F169
:10449000000F0DD0FDF792F804460D4648E902459D
:1044A000CCE74FF000454FF0FF3B6FF0004AD7E7F5
:1044B000FDF730F8F0E700242546EFE75C46554667
:1044C000ECE700BF52C101082AC10108034610B53C
:1044D000D0E90A40241AB4EB410F04D30144D96255
:1044E00008B1026010BD9868024912F006FE002073
:1044F000F8E700BF34C201082DE9F0478146A4B0B7
:1045000008460E4617461D46D2F81880B2F806A097
:10451000FFF79CFE002836D0BAF1020F2A4630463B
:1045200038BF4FF0020A0AF1090A4FEA8A0A5146D7
:10453000FFF7CCFF044630B3002304EB0A014760C9
:10454000243040F81C3C61617460D9F83031374A3E
:104550009B68FB1A9B10534398F81920B2B9D9F8FD
:10456000F82052F8231000293AD1D8F804308021DD
:104570002F4A04A80093D8F800300FF071FF04A967
:10458000484612F0BAFD24B0BDE8F087D9F82021E2
:10459000002AEAD00C214B43D15802EB030C00292E
:1045A000E3D0DCF8083002939CF80430CDE9000336
:1045B0004846FB88D8F80820FFF7F0FC0028E2D036
:1045C000636A0493A36A05933B89012B22D16B692B
:1045D000049A1A606B6904336B61F4627560D2E708
:1045E000D8E904CED8F8082004ABB7F8069098F8BC
:1045F0001880CDE90293CDE900E063463046B8F17A
:10460000000F04D1FFF7DCFB0028BCD0DCE712F080
:10461000B2FDF9E7022BE0D16B69049A1A60059AA2
:104620006B695A606B690833D6E700BFB76DDBB6BC
:10463000CCC301082DE9F04F99B0824693460B9107
:104640000E9311F07DFB8146D8B183690793C3694E
:104650000893DAF8E83014AC9F491B6D1193DAF82F
:1046600030315B681093DAF818300F93CF238DF850
:104670004F3000231D46069309930A9341F0010130
:104680000847CDE90700E4E79449504612F035FDAC
:1046900002F0E5BA14F8012B914B53F82210EDE724
:1046A00094F900302078002B25DB621C119B53F815
:1046B00020309988D888182402F03F030B9E63436A
:1046C0000B9C44331C44F358934225D1A3681593A3
:1046D000A5EB8101069B14461A60D8600698159BCD
:1046E00081604360034614F8012B103306937C4B22
:1046F00053F82210C2E70023202216A92046169361
:1047000012F021FE169A2244D0E72246002112F828
:10471000010B12F078FECEE7E36893420CBF6369A9
:104720000023D4E794F900302078002B13DB013408
:10473000119B53F820209288069BDA60A5EB820239
:10474000C3E900449A60103314F8012B0693644BBC
:1047500053F8221092E700232046202216A9169330
:1047600012F0F1FD169B1C44E2E701340022E3E75E
:1047700094F900302078002B2ADB0134119B53F888
:1047800020309E88DF88182204F03F030B995343A2
:104790000B9A44331A44CB58A3422AD1536814933A
:1047A0009368159355F8043D002B3BD0069BA5EB71
:1047B0008606069A1C60DF60159B96605360134660
:1047C0001033069314F8012B454B53F8221055E78C
:1047D00000232046202216A9169312F0B4FD169B42
:1047E0001C44CBE714F8010B002612F00CFE074620
:1047F000C9E7D368A34203D1136914935369D0E77F
:1048000015AB0B9922460B98029314AB44310193DC
:10481000022300934FF0FF3306F0FAFE0028C1D1C7
:10482000304932E7149B13B9159C0134CAE7069B43
:10483000A5EB8606069A1C60DF60159B149C5360EE
:104840001346966010330693EFE7069B53F80C4C23
:10485000234B14F8012B53F822100FE70A9B069AFA
:104860009B6910339A4208D9A2F1100314F8012B66
:1048700006931B4B53F8221000E76FF00302BBF8BE
:10488000083053430022BBF8081091421AD8DDE9E2
:104890000A23DA620E9A5A609468002C02F0E581CD
:1048A000136A0992D2F804B05569069314F8012BE3
:1048B0000B4B53F82210099B0A9353F8242B0E92AA
:1048C0000993DBE60E9901320E9C4969081D60616F
:1048D000E85804330860D6E7F47200081EC10108E6
:1048E000F0A90108FDC3010894F900302078002BDD
:1048F00006DA0023202216A92046169312F023FD83
:10490000069BA3EB001353F8042C0693960053E97F
:10491000034012B1A91B12F068FD851994B915ABBB
:10492000069A0B99029314AB44310B98CDE90043DE
:104930004FF0FF3352F8102C06F06AFE00283FF4C7
:104940006FAF159C14F8012BAF4B53F8221095E66E
:1049500094F900302078002B0BDB631C55F8042DF4
:10496000002ACDD11C46A84B14F8012B53F8221075
:1049700084E60023202216A92046169312F0E3FCB9
:10498000169B2344EAE794F900302078002B08DBDB
:10499000631C55F8042C043D904228BF1046185C57
:1049A000AEE70023202216A92046169312F0CBFC76
:1049B000169B2344EDE7DAF8E83004F1FF38D3F82A
:1049C000C80010F0A9FE55F8047D06462EB914F86B
:1049D000012B8D4B53F8221050E6304610F09FFE0D
:1049E0007368434507D1B368BB4228BF3B4606EB1B
:1049F0008300C06884E70646E8E76FF00302BBF86F
:104A0000083053430022BBF8081091427FF63FAFB5
:104A10000E9901320E9C4969081D6061E858043303
:104A20000860F0E794F900302078002B19DB01349E
:104A3000DAF830311C222E469B6802FB003BBBF8A3
:104A400006203AB10B9BA6EB8206D86A3146243089
:104A500012F0CBFC0A9B069A5E619C601A6202F01F
:104A600050BC00232046202216A9169312F06BFC9E
:104A7000169B1C44DCE794F900302078002B13DBF4
:104A8000631C5C1CDAF82030119A2E1F196852F84A
:104A9000202055F8043C086998420FD85B495046DD
:104AA00012F02BFB02F0DCB80023202216A92046CE
:104AB000169312F048FC169B2344E2E7063351F8A4
:104AC0002330591C01D15249E9E7DAF8301108695D
:104AD000984201D84F49E2E71C204343886800EB25
:104AE000030BC35CDBF8181023B18B689342A6D08C
:104AF0004949D4E70B68F9E714F8012B043D424B10
:104B000053F82210BAE514F8012B083D3E4B53F838
:104B10002210B3E555F8042CA5F108031AB955F88D
:104B2000082C45F80C2C14F8011B1D46364A52F887
:104B30002110A3E555F8042CA5F10C033AB955F85A
:104B40000C2C45F8142C55F8082C45F8102C14F8AA
:104B5000011B1D462C4A52F821108FE594F90030B4
:104B6000BBF80260002B207814DB0134DBF80C303A
:104B7000B04233F810202ABF801BDBF81030DBF87E
:104B800014301B5C7C3B032B00F2E680DFE803F073
:104B9000170C170C00232046202216A9169312F09A
:104BA000D2FB169B1C44E1E7099B53F8223045F8E1
:104BB000043B14F8012B144B53F822105EE5099BBB
:104BC00003EB820012F09AFBC5E900010835F0E71B
:104BD00094F900302078002B0FDA00F07F00099B59
:104BE00003EB800012F08AFBC5E90001083562780A
:104BF0000234054B53F8221040E5099B53F820304E
:104C000045F8043BF3E700BFF0A90108A3C1010880
:104C1000B5C1010817C4010870C1010894F900303A
:104C2000BBF80260002B207814DB0134DBF80C3079
:104C3000B04233F810202ABF801BDBF81030DBF8BD
:104C400014301B5C7C3B032B00F28680DFE803F012
:104C5000190C190C00232046202216A9169312F0D5
:104C600072FB169B1C44E1E755F8041C2B1F0998A6
:104C700040F8221014F8011B1D46A24A52F82110D8
:104C8000FCE4099B03EB8206A5F10803184612F029
:104C900035FB099D45F822007160EBE794F900208F
:104CA0002378002A14DA03F07F03099A02EB8306C3
:104CB000A5F10802104612F021FB099D45F82300DA
:104CC0007160617815468F4B023453F82110D5E49A
:104CD00055F8041C2A1F099840F82310F1E794F9AD
:104CE0000030BBF80260002B207814DB0134B042A6
:104CF000DBF80C3038BFDBF8102033F8103024BF5D
:104D0000801BDBF81420125C7C3A032A24D8DFE8ED
:104D100002F0170C170C00232046202216A9169328
:104D200012F011FB169B1C44E1E755F8042C09997D
:104D300041F8232014F8012B724B53F822109DE404
:104D4000099AA5F1080012F0D9FA099E02EB830234
:104D500046F823005160EDE76B4996E494F9002092
:104D60002378002A12DA03F07F03099AA5F10800DC
:104D700012F0C4FA099E02EB830246F82300516048
:104D8000627802345F4B53F8221077E455F8042C14
:104D9000099941F82320F3E794F900302078002B9B
:104DA00010DB631C182210991C46564B02FB0010A6
:104DB0000F9942688A5845F8042B14F8012B53F8D0
:104DC00022105BE40023202216A92046169312F03D
:104DD000BAFA169B2344E5E794F900302078002BBB
:104DE00012DB01341822109B02FB00300F9B40683D
:104DF0001844444B12F082FAC5E9000114F8012B63
:104E0000083553F8221039E400232046202216A941
:104E1000169312F098FA169B1C44E3E794F90030BD
:104E20002078002B10DB631C1822109C55F8041D01
:104E300002FB00401C46334B42680F98815014F827
:104E4000012B53F8221019E40023202216A9204632
:104E5000169312F078FA169B2344E5E794F9003094
:104E60002078002B0DDB01341823109A0B9903FBDB
:104E7000002055F8043C896942688B420BD82349CD
:104E800003E400232046202216A9169312F05BFAB1
:104E9000169B1C44E8E70B99C9698B4202D91C494F
:104EA000FFF7F3BB0F99043D8B50164B14F8012B01
:104EB00053F82210FFF7E2BB94F900302078002B62
:104EC00016DB631C18221099083D02FB00100F9995
:104ED000426828468C1812F011FA0F9EB05061609B
:104EE0001C46084B14F8012B53F82210FFF7C6BBE1
:104EF0000023202216A92046169312F024FA169BAE
:104F00002344DFE7F0A9010828C40108DCC1010837
:104F1000FAC1010894F90030002B26DB013494F922
:104F200000302078002B2ADB013455F8042C2E1F8A
:104F3000079F131D2CBF012100211B1841F1000107
:104F40009F42089B73EB0101C2F0A381D9F8203086
:104F50001044184412F0DAF9B64B45F8040C14F872
:104F6000012B53F82210FFF789BB00232046202293
:104F700016A9169312F0E7F9169E3444CFE70023E2
:104F80002046202216A9169312F0DDF9169B1C4428
:104F9000CBE794F90030002B2BDB013494F900307F
:104FA0002078002B2FDB013455F8042C2E1F079F8F
:104FB00012F108032CBF012100211B1841F100014F
:104FC0009F42089B73EB0101C2F063811044D9F842
:104FD000203019184F0720D11A584B6845F8042C77
:104FE00045F8043B934B14F8012B53F82210FFF7BC
:104FF00045BB00232046202216A9169312F0A3F9E0
:10500000169E3444CAE700232046202216A9169390
:1050100012F099F9169B1C44C6E78E0706D11B585F
:1050200016934B681793DDE91623D7E7CA070CD40C
:105030001B5AADF858304B88ADF85A308B88ADF814
:105040005C30CB88ADF85E30EDE716AA1858496899
:1050500003C2E8E794F90030002B24DB013494F913
:1050600000302078002B28DB013455F8042C2E1F4B
:10507000079F531C2CBF012100211B1841F1000187
:105080009F42089B73EB0101C2F00381D9F82030E5
:1050900003449B5645F8043C664B14F8012B53F827
:1050A0002210FFF7EBBA00232046202216A9169300
:1050B00012F049F9169E3444D1E7002320462022FD
:1050C00016A9169312F03FF9169B1C44CDE794F9EC
:1050D0000030002B24DB013494F900302078002BC1
:1050E00028DB013455F8042C2E1F079F531C2CBFBE
:1050F000012100211B1841F100019F42089B73EB25
:105100000101C2F0C680D9F8203003449B5C45F809
:10511000043C484B14F8012B53F82210FFF7AEBAA9
:1051200000232046202216A9169312F00CF9169E91
:105130003444D1E700232046202216A9169312F00A
:1051400002F9169B1C44CDE794F90030002B26DBB6
:10515000013494F900302078002B2ADB013455F813
:10516000042C2E1F079F931C2CBF012100211B180C
:1051700041F100019F42089B73EB0101C2F089805D
:10518000D9F820301044184412F021F9294B45F881
:10519000040C14F8012B53F82210FFF76FBA002308
:1051A0002046202216A9169312F0CDF8169E3444FC
:1051B000CFE700232046202216A9169312F0C3F849
:1051C000169B1C44CBE794F90030002B27DB0134FD
:1051D00094F900302078002B2EDB013455F8042C94
:1051E0002E1F079F931C2CBF012100211B1841F18A
:1051F00000019F42089B73EB0101C2F04A80D9F87D
:1052000020301044184412F0E2F80A4B80B245F8FE
:10521000040C14F8012B53F82210FFF72FBA0023C7
:105220002046202216A9169312F08DF8169E3444BB
:10523000CEE700BFF0A9010800232046202216A9CE
:10524000169312F080F8169B1C44C7E794F90030BF
:10525000002B27DB013494F900302078002B2BDB66
:10526000013455F8042C2E1F079F531C2CBF01211D
:1052700000211B1841F100019F42089B73EB0101C3
:10528000C2F00780D9F8203003449B5645F8043C0F
:10529000DB1745F8043BB24B14F8012B53F82210EE
:1052A000FFF7ECB900232046202216A9169312F02E
:1052B0004AF8169E3444CEE700232046202216A941
:1052C000169312F040F8169B1C44CAE794F900307C
:1052D000002B27DB013494F900302078002B2BDBE6
:1052E000013455F8042C0027DDF81CC02E1F531C78
:1052F00047F100011B1841F100019C45089B73EB2D
:105300000101C1F0C687D9F8203003449B5C45F801
:10531000043C934B45F8047B14F8012B53F82210FE
:10532000FFF7ACB900232046202216A9169312F0ED
:105330000AF8169E3444CEE700232046202216A900
:10534000169312F000F8169B1C44CAE794F900303B
:10535000002B29DB013494F900302078002B2DDB61
:10536000013455F8042C2E1F079F931C2CBF0121DC
:1053700000211B1841F100019F42089B73EB0101C2
:10538000C1F08787D9F820301044184412F01FF874
:1053900045F8040CC017724B45F8040B14F8012BA8
:1053A00053F82210FFF76AB900232046202216A9DD
:1053B000169311F0C8FF169E3444CCE70023204614
:1053C000202216A9169311F0BEFF169B1C44C8E7B5
:1053D00094F90030002B2ADB013494F90030207856
:1053E000002B2EDB013455F8042C0021DDF81CC005
:1053F0002E1F931C41F100071B1847F100079C4525
:10540000089B73EB0707C1F04487D9F8203010449C
:10541000184411F0DCFF524B80B245F8040C45F8FB
:10542000041B14F8012B53F82210FFF727B90023AF
:105430002046202216A9169311F085FF169E3444AB
:10544000CBE700232046202216A9169311F07BFFFC
:10545000169B1C44C7E794F90030002B29DB01346C
:1054600094F900302078002B2DDB013455F8042C02
:105470002E1F079F131D2CBF012100211B1841F176
:1054800000019F42089B73EB0101C1F00287D9F82C
:1054900020301044184411F039FF45F8040CC017AF
:1054A0002F4B45F8040B14F8012B53F82210FFF78B
:1054B000E5B800232046202216A9169311F043FFD9
:1054C000169E3444CCE700232046202216A91693CA
:1054D00011F039FF169B1C44C8E794F90030002BEB
:1054E00029DB013494F900302078002B2DDB0134C6
:1054F00055F8042C0021DDF81CC02E1F131D41F1AE
:1055000000071B1847F100079C45089B73EB070732
:10551000C1F0BF86D9F820301044184411F0F6FECF
:105520000F4B45F8040C45F8041B14F8012B53F8F5
:105530002210FFF7A3B800232046202216A91693B5
:1055400011F001FF169E3444CCE7002320462022B0
:1055500016A9169311F0F7FE169B1C44C8E700BF6E
:10556000F0A9010894F90030002B29DB013494F9EB
:1055700000302078002B2DDB013455F8082CA5F1E4
:105580000806079F131D2CBF012100211B1841F1A4
:1055900000019F42089B73EB0101C1F07A86104421
:1055A000D9F8202055F8043C11188F071CD113504E
:1055B00014F8012B3546C24B53F82210FFF75EB8A2
:1055C00000232046202216A9169311F0BCFE169E39
:1055D0003444CCE700232046202216A9169311F06C
:1055E000B2FE169B1C44C8E7CD0704D41352C3F384
:1055F0000F434B80DCE71354C3F307224A70C3F315
:105600000742C3F307638A70CB70D1E794F9003087
:10561000002B2CDB013494F900202378002A30DBA6
:105620001846013455F80C2CA5F10C06079F12F111
:1056300008032CBF012100211B1841F100019F42EA
:10564000089B73EB0101C1F024868318D9F8202050
:10565000A5F108003546D71811F050FED0507960FA
:10566000974B14F8012B53F82210FFF707B80023CB
:105670002046202216A9169311F065FE169E34448A
:10568000C9E700232046202216A9169311F05BFEDD
:10569000169B1C44C6E794F9003014F8017C002BDB
:1056A00029DB013494F900302078002B2DDB013404
:1056B0003A2F55F8041CA5F1080655F8082C4FF0B0
:1056C00000032CD1551C079F43F100032D1843F113
:1056D0000003AF42089D75EB0303C1F0DA85D9F8EA
:1056E00020300344995414F8012B3546744B53F879
:1056F0002210FEF7C3BF00232046202216A91693CE
:1057000011F021FE169E3444CCE7002320462022CF
:1057100016A9169311F017FE169B1C44C8E7951C9A
:10572000079F43F100032D1843F10003AF42089D8A
:1057300075EB0303C1F0AD85D9F82030104419543E
:105740001A18C1F307215170CDE794F9003014F80D
:10575000017C002B2CDB013494F900202378002AF3
:1057600030DB0134A5F10800A5F10C0611F0C6FDEF
:105770003C2F55F80C1C4FF000022ED14D1C079FFA
:1057800042F10002ED1842F10002AF42089D75EBB4
:105790000202C1F07E85D9F820201A44505414F832
:1057A000012B3546464B53F82210FEF767BFCCE776
:1057B00000232046202216A9169311F0C4FD169E40
:1057C0003444C9E700232022204616A9169311F07D
:1057D000BAFD169A03461444C4E73D2F15D18D1C1B
:1057E000079F42F10002ED1842F10002AF42089D0E
:1057F00075EB0202C1F04D851944D9F82030585498
:105800005A18C0F307205070C9E70D1D079F42F1D9
:105810000002ED1842F10002AF42089D75EB020252
:10582000C1F037850B44D9F82020D1188F0701D15A
:10583000D050B4E7CD0704D4D052C0F30F40488015
:10584000ADE7D054C0F307234B70C0F30743C0F358
:1058500007608B70C870A2E794F90030002B0CDB56
:10586000631CD9F810201C46154B45F8042B14F87E
:10587000012B53F82210FEF701BF0023202216A9A6
:105880002046169311F05FFD169B2344E9E794F937
:1058900000302278002B15DB013455F8041C5046EB
:1058A000D9F8106010F0B0FAB8B94FF0FF3345F8EE
:1058B000043C14F8012B024B53F82210FEF7DEBE15
:1058C000F0A9010800232022204616A9169311F002
:1058D0003AFD169B02461C44DFE745F8046CD9F8F4
:1058E00018300793D9F81C300893E2E794F9003098
:1058F0002078002B0FDB430604F1010348BF60F062
:105900007F001C4645F8040BCE4B14F8012B53F8CE
:105910002210FEF7B3BE0023202216A920461693BC
:10592000012311F010FD169B2344EAE794F900309F
:105930002078002B13DB10F0400104F101031CBFA1
:1059400060F07F004FF0FF311C46BE4BC5E90001FF
:1059500014F8012B083553F82210FEF78FBE0023F0
:10596000402216A920461693012311F0ECFC169B49
:105970002344E9E72A1D211D013D234613F8010BAD
:105980008B4205F8010FF9D121791546AD4B05344D
:1059900053F82110FEF772BE05F1080204F1080168
:1059A000013D234613F8010B8B4205F8010FF9D195
:1059B000217A1546A34B093453F82110FEF75EBE39
:1059C00055F8043CB3FA83F35B0945F8043C9D4B5E
:1059D00014F8012B53F82210FEF750BE55E90223AC
:1059E000043D9F1A7B427B4145F8043C954B14F8DB
:1059F000012B53F82210FEF741BE55E90223043D66
:105A00009B1A18BF012345F8043C8E4B14F8012B58
:105A100053F82210FEF732BE55E90223043D9342AB
:105A2000D4BF0023012345F8043C864B14F8012B16
:105A300053F82210FEF722BE55E90223043D93429B
:105A400094BF0023012345F8043C7E4B14F8012B3E
:105A500053F82210FEF712BE55E90223043D93428B
:105A6000ACBF0023012345F8043C764B14F8012B0E
:105A700053F82210FEF702BE55E90223043D93427B
:105A80002CBF0023012345F8043C6E4B14F8012B76
:105A900053F82210FEF7F2BD55E90223043D93426C
:105AA000B4BF0023012345F8043C664B14F8012BD6
:105AB00053F82210FEF7E2BD55E90223043D93425C
:105AC00034BF0023012345F8043C5E4B14F8012B3E
:105AD00053F82210FEF7D2BD55E90223043D93424C
